{
	"contracts/ViewPure.sol": {
		"ViewPure": {
			"abi": [
				{
					"inputs": [],
					"name": "toHexString",
					"outputs": [
						{
							"internalType": "string",
							"name": "",
							"type": "string"
						}
					],
					"stateMutability": "view",
					"type": "function"
				},
				{
					"inputs": [],
					"name": "view_get_func",
					"outputs": [
						{
							"internalType": "string",
							"name": "",
							"type": "string"
						}
					],
					"stateMutability": "view",
					"type": "function"
				},
				{
					"inputs": [
						{
							"internalType": "string",
							"name": "_value",
							"type": "string"
						}
					],
					"name": "view_set_func",
					"outputs": [],
					"stateMutability": "nonpayable",
					"type": "function"
				}
			],
			"devdoc": {
				"kind": "dev",
				"methods": {},
				"version": 1
			},
			"evm": {
				"assembly": "    /* \"contracts/ViewPure.sol\":170:990  contract ViewPure {\r... */\n  mstore(0x40, 0x80)\n    /* \"contracts/ViewPure.sol\":195:217  string value = \"Hello\" */\n  mload(0x40)\n  dup1\n  0x40\n  add\n  0x40\n  mstore\n  dup1\n  0x05\n  dup2\n  mstore\n  0x20\n  add\n  0x48656c6c6f000000000000000000000000000000000000000000000000000000\n  dup2\n  mstore\n  pop\n  0x00\n  swap1\n  dup1\n  mload\n  swap1\n  0x20\n  add\n  swap1\n  tag_1\n  swap3\n  swap2\n  swap1\n  tag_2\n  jump\t// in\ntag_1:\n  pop\n    /* \"contracts/ViewPure.sol\":243:247  1234 */\n  0x04d2\n    /* \"contracts/ViewPure.sol\":226:247  uint256 number = 1234 */\n  0x01\n  sstore\n    /* \"contracts/ViewPure.sol\":170:990  contract ViewPure {\r... */\n  callvalue\n  dup1\n  iszero\n  tag_3\n  jumpi\n  0x00\n  dup1\n  revert\ntag_3:\n  pop\n  jump(tag_4)\ntag_2:\n  dup3\n  dup1\n  sload\n  tag_5\n  swap1\n  tag_6\n  jump\t// in\ntag_5:\n  swap1\n  0x00\n  mstore\n  keccak256(0x00, 0x20)\n  swap1\n  0x1f\n  add\n  0x20\n  swap1\n  div\n  dup2\n  add\n  swap3\n  dup3\n  tag_8\n  jumpi\n  0x00\n  dup6\n  sstore\n  jump(tag_7)\ntag_8:\n  dup3\n  0x1f\n  lt\n  tag_9\n  jumpi\n  dup1\n  mload\n  not(0xff)\n  and\n  dup4\n  dup1\n  add\n  or\n  dup6\n  sstore\n  jump(tag_7)\ntag_9:\n  dup3\n  dup1\n  add\n  0x01\n  add\n  dup6\n  sstore\n  dup3\n  iszero\n  tag_7\n  jumpi\n  swap2\n  dup3\n  add\ntag_10:\n  dup3\n  dup2\n  gt\n  iszero\n  tag_11\n  jumpi\n  dup3\n  mload\n  dup3\n  sstore\n  swap2\n  0x20\n  add\n  swap2\n  swap1\n  0x01\n  add\n  swap1\n  jump(tag_10)\ntag_11:\ntag_7:\n  pop\n  swap1\n  pop\n  tag_12\n  swap2\n  swap1\n  tag_13\n  jump\t// in\ntag_12:\n  pop\n  swap1\n  jump\t// out\ntag_13:\ntag_14:\n  dup1\n  dup3\n  gt\n  iszero\n  tag_15\n  jumpi\n  0x00\n  dup2\n  0x00\n  swap1\n  sstore\n  pop\n  0x01\n  add\n  jump(tag_14)\ntag_15:\n  pop\n  swap1\n  jump\t// out\n    /* \"#utility.yul\":7:327   */\ntag_6:\n    /* \"#utility.yul\":51:57   */\n  0x00\n    /* \"#utility.yul\":88:89   */\n  0x02\n    /* \"#utility.yul\":82:86   */\n  dup3\n    /* \"#utility.yul\":78:90   */\n  div\n    /* \"#utility.yul\":68:90   */\n  swap1\n  pop\n    /* \"#utility.yul\":135:136   */\n  0x01\n    /* \"#utility.yul\":129:133   */\n  dup3\n    /* \"#utility.yul\":125:137   */\n  and\n    /* \"#utility.yul\":156:174   */\n  dup1\n    /* \"#utility.yul\":146:227   */\n  tag_18\n  jumpi\n    /* \"#utility.yul\":212:216   */\n  0x7f\n    /* \"#utility.yul\":204:210   */\n  dup3\n    /* \"#utility.yul\":200:217   */\n  and\n    /* \"#utility.yul\":190:217   */\n  swap2\n  pop\n    /* \"#utility.yul\":146:227   */\ntag_18:\n    /* \"#utility.yul\":274:276   */\n  0x20\n    /* \"#utility.yul\":266:272   */\n  dup3\n    /* \"#utility.yul\":263:277   */\n  lt\n    /* \"#utility.yul\":243:261   */\n  dup2\n    /* \"#utility.yul\":240:278   */\n  eq\n    /* \"#utility.yul\":237:321   */\n  iszero\n  tag_19\n  jumpi\n    /* \"#utility.yul\":293:311   */\n  tag_20\n  tag_21\n  jump\t// in\ntag_20:\n    /* \"#utility.yul\":237:321   */\ntag_19:\n    /* \"#utility.yul\":58:327   */\n  pop\n    /* \"#utility.yul\":7:327   */\n  swap2\n  swap1\n  pop\n  jump\t// out\n    /* \"#utility.yul\":333:513   */\ntag_21:\n    /* \"#utility.yul\":381:458   */\n  0x4e487b7100000000000000000000000000000000000000000000000000000000\n    /* \"#utility.yul\":378:379   */\n  0x00\n    /* \"#utility.yul\":371:459   */\n  mstore\n    /* \"#utility.yul\":478:482   */\n  0x22\n    /* \"#utility.yul\":475:476   */\n  0x04\n    /* \"#utility.yul\":468:483   */\n  mstore\n    /* \"#utility.yul\":502:506   */\n  0x24\n    /* \"#utility.yul\":499:500   */\n  0x00\n    /* \"#utility.yul\":492:507   */\n  revert\n    /* \"contracts/ViewPure.sol\":170:990  contract ViewPure {\r... */\ntag_4:\n  dataSize(sub_0)\n  dup1\n  dataOffset(sub_0)\n  0x00\n  codecopy\n  0x00\n  return\nstop\n\nsub_0: assembly {\n        /* \"contracts/ViewPure.sol\":170:990  contract ViewPure {\r... */\n      mstore(0x40, 0x80)\n      callvalue\n      dup1\n      iszero\n      tag_1\n      jumpi\n      0x00\n      dup1\n      revert\n    tag_1:\n      pop\n      jumpi(tag_2, lt(calldatasize, 0x04))\n      shr(0xe0, calldataload(0x00))\n      dup1\n      0x93ebbd92\n      eq\n      tag_3\n      jumpi\n      dup1\n      0xbd1b8531\n      eq\n      tag_4\n      jumpi\n      dup1\n      0xbfc66066\n      eq\n      tag_5\n      jumpi\n    tag_2:\n      0x00\n      dup1\n      revert\n        /* \"contracts/ViewPure.sol\":386:478  function view_get_func() public view returns (string memory) {\r... */\n    tag_3:\n      tag_6\n      tag_7\n      jump\t// in\n    tag_6:\n      mload(0x40)\n      tag_8\n      swap2\n      swap1\n      tag_9\n      jump\t// in\n    tag_8:\n      mload(0x40)\n      dup1\n      swap2\n      sub\n      swap1\n      return\n        /* \"contracts/ViewPure.sol\":835:987  function toHexString() public view returns (string memory) {\r... */\n    tag_4:\n      tag_10\n      tag_11\n      jump\t// in\n    tag_10:\n      mload(0x40)\n      tag_12\n      swap2\n      swap1\n      tag_9\n      jump\t// in\n    tag_12:\n      mload(0x40)\n      dup1\n      swap2\n      sub\n      swap1\n      return\n        /* \"contracts/ViewPure.sol\":742:827  function view_set_func(string memory _value) public {\r... */\n    tag_5:\n      tag_13\n      0x04\n      dup1\n      calldatasize\n      sub\n      dup2\n      add\n      swap1\n      tag_14\n      swap2\n      swap1\n      tag_15\n      jump\t// in\n    tag_14:\n      tag_16\n      jump\t// in\n    tag_13:\n      stop\n        /* \"contracts/ViewPure.sol\":386:478  function view_get_func() public view returns (string memory) {\r... */\n    tag_7:\n        /* \"contracts/ViewPure.sol\":432:445  string memory */\n      0x60\n        /* \"contracts/ViewPure.sol\":465:470  value */\n      0x00\n        /* \"contracts/ViewPure.sol\":458:470  return value */\n      dup1\n      sload\n      tag_18\n      swap1\n      tag_19\n      jump\t// in\n    tag_18:\n      dup1\n      0x1f\n      add\n      0x20\n      dup1\n      swap2\n      div\n      mul\n      0x20\n      add\n      mload(0x40)\n      swap1\n      dup2\n      add\n      0x40\n      mstore\n      dup1\n      swap3\n      swap2\n      swap1\n      dup2\n      dup2\n      mstore\n      0x20\n      add\n      dup3\n      dup1\n      sload\n      tag_20\n      swap1\n      tag_19\n      jump\t// in\n    tag_20:\n      dup1\n      iszero\n      tag_21\n      jumpi\n      dup1\n      0x1f\n      lt\n      tag_22\n      jumpi\n      0x0100\n      dup1\n      dup4\n      sload\n      div\n      mul\n      dup4\n      mstore\n      swap2\n      0x20\n      add\n      swap2\n      jump(tag_21)\n    tag_22:\n      dup3\n      add\n      swap2\n      swap1\n      0x00\n      mstore\n      keccak256(0x00, 0x20)\n      swap1\n    tag_23:\n      dup2\n      sload\n      dup2\n      mstore\n      swap1\n      0x01\n      add\n      swap1\n      0x20\n      add\n      dup1\n      dup4\n      gt\n      tag_23\n      jumpi\n      dup3\n      swap1\n      sub\n      0x1f\n      and\n      dup3\n      add\n      swap2\n    tag_21:\n      pop\n      pop\n      pop\n      pop\n      pop\n      swap1\n      pop\n        /* \"contracts/ViewPure.sol\":386:478  function view_get_func() public view returns (string memory) {\r... */\n      swap1\n      jump\t// out\n        /* \"contracts/ViewPure.sol\":835:987  function toHexString() public view returns (string memory) {\r... */\n    tag_11:\n        /* \"contracts/ViewPure.sol\":879:892  string memory */\n      0x60\n        /* \"contracts/ViewPure.sol\":905:925  string memory hexStr */\n      0x00\n        /* \"contracts/ViewPure.sol\":928:955  Strings.toHexString(number) */\n      tag_25\n        /* \"contracts/ViewPure.sol\":948:954  number */\n      sload(0x01)\n        /* \"contracts/ViewPure.sol\":928:947  Strings.toHexString */\n      tag_26\n        /* \"contracts/ViewPure.sol\":928:955  Strings.toHexString(number) */\n      jump\t// in\n    tag_25:\n        /* \"contracts/ViewPure.sol\":905:955  string memory hexStr = Strings.toHexString(number) */\n      swap1\n      pop\n        /* \"contracts/ViewPure.sol\":973:979  hexStr */\n      dup1\n        /* \"contracts/ViewPure.sol\":966:979  return hexStr */\n      swap2\n      pop\n      pop\n        /* \"contracts/ViewPure.sol\":835:987  function toHexString() public view returns (string memory) {\r... */\n      swap1\n      jump\t// out\n        /* \"contracts/ViewPure.sol\":742:827  function view_set_func(string memory _value) public {\r... */\n    tag_16:\n        /* \"contracts/ViewPure.sol\":813:819  _value */\n      dup1\n        /* \"contracts/ViewPure.sol\":805:810  value */\n      0x00\n        /* \"contracts/ViewPure.sol\":805:819  value = _value */\n      swap1\n      dup1\n      mload\n      swap1\n      0x20\n      add\n      swap1\n      tag_28\n      swap3\n      swap2\n      swap1\n      tag_29\n      jump\t// in\n    tag_28:\n      pop\n        /* \"contracts/ViewPure.sol\":742:827  function view_set_func(string memory _value) public {\r... */\n      pop\n      jump\t// out\n        /* \"https://github.com/OpenZeppelin/openzeppelin-contracts/blob/master/contracts/utils/Strings.sol\":1521:1695  function toHexString(uint256 value) internal pure returns (string memory) {... */\n    tag_26:\n        /* \"https://github.com/OpenZeppelin/openzeppelin-contracts/blob/master/contracts/utils/Strings.sol\":1580:1593  string memory */\n      0x60\n        /* \"https://github.com/OpenZeppelin/openzeppelin-contracts/blob/master/contracts/utils/Strings.sol\":1636:1678  toHexString(value, Math.log256(value) + 1) */\n      tag_31\n        /* \"https://github.com/OpenZeppelin/openzeppelin-contracts/blob/master/contracts/utils/Strings.sol\":1648:1653  value */\n      dup3\n        /* \"https://github.com/OpenZeppelin/openzeppelin-contracts/blob/master/contracts/utils/Strings.sol\":1676:1677  1 */\n      0x01\n        /* \"https://github.com/OpenZeppelin/openzeppelin-contracts/blob/master/contracts/utils/Strings.sol\":1655:1673  Math.log256(value) */\n      tag_32\n        /* \"https://github.com/OpenZeppelin/openzeppelin-contracts/blob/master/contracts/utils/Strings.sol\":1667:1672  value */\n      dup6\n        /* \"https://github.com/OpenZeppelin/openzeppelin-contracts/blob/master/contracts/utils/Strings.sol\":1655:1666  Math.log256 */\n      tag_33\n        /* \"https://github.com/OpenZeppelin/openzeppelin-contracts/blob/master/contracts/utils/Strings.sol\":1655:1673  Math.log256(value) */\n      jump\t// in\n    tag_32:\n        /* \"https://github.com/OpenZeppelin/openzeppelin-contracts/blob/master/contracts/utils/Strings.sol\":1655:1677  Math.log256(value) + 1 */\n      add\n        /* \"https://github.com/OpenZeppelin/openzeppelin-contracts/blob/master/contracts/utils/Strings.sol\":1636:1647  toHexString */\n      tag_34\n        /* \"https://github.com/OpenZeppelin/openzeppelin-contracts/blob/master/contracts/utils/Strings.sol\":1636:1678  toHexString(value, Math.log256(value) + 1) */\n      jump\t// in\n    tag_31:\n        /* \"https://github.com/OpenZeppelin/openzeppelin-contracts/blob/master/contracts/utils/Strings.sol\":1629:1678  return toHexString(value, Math.log256(value) + 1) */\n      swap1\n      pop\n        /* \"https://github.com/OpenZeppelin/openzeppelin-contracts/blob/master/contracts/utils/Strings.sol\":1521:1695  function toHexString(uint256 value) internal pure returns (string memory) {... */\n      swap2\n      swap1\n      pop\n      jump\t// out\n        /* \"https://github.com/OpenZeppelin/openzeppelin-contracts/blob/master/contracts/utils/math/Math.sol\":11415:12078  function log256(uint256 value) internal pure returns (uint256) {... */\n    tag_33:\n        /* \"https://github.com/OpenZeppelin/openzeppelin-contracts/blob/master/contracts/utils/math/Math.sol\":11469:11476  uint256 */\n      0x00\n        /* \"https://github.com/OpenZeppelin/openzeppelin-contracts/blob/master/contracts/utils/math/Math.sol\":11488:11502  uint256 result */\n      dup1\n        /* \"https://github.com/OpenZeppelin/openzeppelin-contracts/blob/master/contracts/utils/math/Math.sol\":11505:11506  0 */\n      0x00\n        /* \"https://github.com/OpenZeppelin/openzeppelin-contracts/blob/master/contracts/utils/math/Math.sol\":11488:11506  uint256 result = 0 */\n      swap1\n      pop\n        /* \"https://github.com/OpenZeppelin/openzeppelin-contracts/blob/master/contracts/utils/math/Math.sol\":11559:11560  0 */\n      0x00\n        /* \"https://github.com/OpenZeppelin/openzeppelin-contracts/blob/master/contracts/utils/math/Math.sol\":11553:11556  128 */\n      0x80\n        /* \"https://github.com/OpenZeppelin/openzeppelin-contracts/blob/master/contracts/utils/math/Math.sol\":11544:11549  value */\n      dup5\n        /* \"https://github.com/OpenZeppelin/openzeppelin-contracts/blob/master/contracts/utils/math/Math.sol\":11544:11556  value >> 128 */\n      swap1\n      shr\n        /* \"https://github.com/OpenZeppelin/openzeppelin-contracts/blob/master/contracts/utils/math/Math.sol\":11544:11560  value >> 128 > 0 */\n      gt\n        /* \"https://github.com/OpenZeppelin/openzeppelin-contracts/blob/master/contracts/utils/math/Math.sol\":11540:11638  if (value >> 128 > 0) {... */\n      iszero\n      tag_36\n      jumpi\n        /* \"https://github.com/OpenZeppelin/openzeppelin-contracts/blob/master/contracts/utils/math/Math.sol\":11590:11593  128 */\n      0x80\n        /* \"https://github.com/OpenZeppelin/openzeppelin-contracts/blob/master/contracts/utils/math/Math.sol\":11580:11593  value >>= 128 */\n      dup4\n      swap1\n      shr\n      swap3\n      pop\n        /* \"https://github.com/OpenZeppelin/openzeppelin-contracts/blob/master/contracts/utils/math/Math.sol\":11621:11623  16 */\n      0x10\n        /* \"https://github.com/OpenZeppelin/openzeppelin-contracts/blob/master/contracts/utils/math/Math.sol\":11611:11623  result += 16 */\n      dup2\n      add\n      swap1\n      pop\n        /* \"https://github.com/OpenZeppelin/openzeppelin-contracts/blob/master/contracts/utils/math/Math.sol\":11540:11638  if (value >> 128 > 0) {... */\n    tag_36:\n        /* \"https://github.com/OpenZeppelin/openzeppelin-contracts/blob/master/contracts/utils/math/Math.sol\":11669:11670  0 */\n      0x00\n        /* \"https://github.com/OpenZeppelin/openzeppelin-contracts/blob/master/contracts/utils/math/Math.sol\":11664:11666  64 */\n      0x40\n        /* \"https://github.com/OpenZeppelin/openzeppelin-contracts/blob/master/contracts/utils/math/Math.sol\":11655:11660  value */\n      dup5\n        /* \"https://github.com/OpenZeppelin/openzeppelin-contracts/blob/master/contracts/utils/math/Math.sol\":11655:11666  value >> 64 */\n      swap1\n      shr\n        /* \"https://github.com/OpenZeppelin/openzeppelin-contracts/blob/master/contracts/utils/math/Math.sol\":11655:11670  value >> 64 > 0 */\n      gt\n        /* \"https://github.com/OpenZeppelin/openzeppelin-contracts/blob/master/contracts/utils/math/Math.sol\":11651:11746  if (value >> 64 > 0) {... */\n      iszero\n      tag_37\n      jumpi\n        /* \"https://github.com/OpenZeppelin/openzeppelin-contracts/blob/master/contracts/utils/math/Math.sol\":11700:11702  64 */\n      0x40\n        /* \"https://github.com/OpenZeppelin/openzeppelin-contracts/blob/master/contracts/utils/math/Math.sol\":11690:11702  value >>= 64 */\n      dup4\n      swap1\n      shr\n      swap3\n      pop\n        /* \"https://github.com/OpenZeppelin/openzeppelin-contracts/blob/master/contracts/utils/math/Math.sol\":11730:11731  8 */\n      0x08\n        /* \"https://github.com/OpenZeppelin/openzeppelin-contracts/blob/master/contracts/utils/math/Math.sol\":11720:11731  result += 8 */\n      dup2\n      add\n      swap1\n      pop\n        /* \"https://github.com/OpenZeppelin/openzeppelin-contracts/blob/master/contracts/utils/math/Math.sol\":11651:11746  if (value >> 64 > 0) {... */\n    tag_37:\n        /* \"https://github.com/OpenZeppelin/openzeppelin-contracts/blob/master/contracts/utils/math/Math.sol\":11777:11778  0 */\n      0x00\n        /* \"https://github.com/OpenZeppelin/openzeppelin-contracts/blob/master/contracts/utils/math/Math.sol\":11772:11774  32 */\n      0x20\n        /* \"https://github.com/OpenZeppelin/openzeppelin-contracts/blob/master/contracts/utils/math/Math.sol\":11763:11768  value */\n      dup5\n        /* \"https://github.com/OpenZeppelin/openzeppelin-contracts/blob/master/contracts/utils/math/Math.sol\":11763:11774  value >> 32 */\n      swap1\n      shr\n        /* \"https://github.com/OpenZeppelin/openzeppelin-contracts/blob/master/contracts/utils/math/Math.sol\":11763:11778  value >> 32 > 0 */\n      gt\n        /* \"https://github.com/OpenZeppelin/openzeppelin-contracts/blob/master/contracts/utils/math/Math.sol\":11759:11854  if (value >> 32 > 0) {... */\n      iszero\n      tag_38\n      jumpi\n        /* \"https://github.com/OpenZeppelin/openzeppelin-contracts/blob/master/contracts/utils/math/Math.sol\":11808:11810  32 */\n      0x20\n        /* \"https://github.com/OpenZeppelin/openzeppelin-contracts/blob/master/contracts/utils/math/Math.sol\":11798:11810  value >>= 32 */\n      dup4\n      swap1\n      shr\n      swap3\n      pop\n        /* \"https://github.com/OpenZeppelin/openzeppelin-contracts/blob/master/contracts/utils/math/Math.sol\":11838:11839  4 */\n      0x04\n        /* \"https://github.com/OpenZeppelin/openzeppelin-contracts/blob/master/contracts/utils/math/Math.sol\":11828:11839  result += 4 */\n      dup2\n      add\n      swap1\n      pop\n        /* \"https://github.com/OpenZeppelin/openzeppelin-contracts/blob/master/contracts/utils/math/Math.sol\":11759:11854  if (value >> 32 > 0) {... */\n    tag_38:\n        /* \"https://github.com/OpenZeppelin/openzeppelin-contracts/blob/master/contracts/utils/math/Math.sol\":11885:11886  0 */\n      0x00\n        /* \"https://github.com/OpenZeppelin/openzeppelin-contracts/blob/master/contracts/utils/math/Math.sol\":11880:11882  16 */\n      0x10\n        /* \"https://github.com/OpenZeppelin/openzeppelin-contracts/blob/master/contracts/utils/math/Math.sol\":11871:11876  value */\n      dup5\n        /* \"https://github.com/OpenZeppelin/openzeppelin-contracts/blob/master/contracts/utils/math/Math.sol\":11871:11882  value >> 16 */\n      swap1\n      shr\n        /* \"https://github.com/OpenZeppelin/openzeppelin-contracts/blob/master/contracts/utils/math/Math.sol\":11871:11886  value >> 16 > 0 */\n      gt\n        /* \"https://github.com/OpenZeppelin/openzeppelin-contracts/blob/master/contracts/utils/math/Math.sol\":11867:11962  if (value >> 16 > 0) {... */\n      iszero\n      tag_39\n      jumpi\n        /* \"https://github.com/OpenZeppelin/openzeppelin-contracts/blob/master/contracts/utils/math/Math.sol\":11916:11918  16 */\n      0x10\n        /* \"https://github.com/OpenZeppelin/openzeppelin-contracts/blob/master/contracts/utils/math/Math.sol\":11906:11918  value >>= 16 */\n      dup4\n      swap1\n      shr\n      swap3\n      pop\n        /* \"https://github.com/OpenZeppelin/openzeppelin-contracts/blob/master/contracts/utils/math/Math.sol\":11946:11947  2 */\n      0x02\n        /* \"https://github.com/OpenZeppelin/openzeppelin-contracts/blob/master/contracts/utils/math/Math.sol\":11936:11947  result += 2 */\n      dup2\n      add\n      swap1\n      pop\n        /* \"https://github.com/OpenZeppelin/openzeppelin-contracts/blob/master/contracts/utils/math/Math.sol\":11867:11962  if (value >> 16 > 0) {... */\n    tag_39:\n        /* \"https://github.com/OpenZeppelin/openzeppelin-contracts/blob/master/contracts/utils/math/Math.sol\":11992:11993  0 */\n      0x00\n        /* \"https://github.com/OpenZeppelin/openzeppelin-contracts/blob/master/contracts/utils/math/Math.sol\":11988:11989  8 */\n      0x08\n        /* \"https://github.com/OpenZeppelin/openzeppelin-contracts/blob/master/contracts/utils/math/Math.sol\":11979:11984  value */\n      dup5\n        /* \"https://github.com/OpenZeppelin/openzeppelin-contracts/blob/master/contracts/utils/math/Math.sol\":11979:11989  value >> 8 */\n      swap1\n      shr\n        /* \"https://github.com/OpenZeppelin/openzeppelin-contracts/blob/master/contracts/utils/math/Math.sol\":11979:11993  value >> 8 > 0 */\n      gt\n        /* \"https://github.com/OpenZeppelin/openzeppelin-contracts/blob/master/contracts/utils/math/Math.sol\":11975:12039  if (value >> 8 > 0) {... */\n      iszero\n      tag_40\n      jumpi\n        /* \"https://github.com/OpenZeppelin/openzeppelin-contracts/blob/master/contracts/utils/math/Math.sol\":12023:12024  1 */\n      0x01\n        /* \"https://github.com/OpenZeppelin/openzeppelin-contracts/blob/master/contracts/utils/math/Math.sol\":12013:12024  result += 1 */\n      dup2\n      add\n      swap1\n      pop\n        /* \"https://github.com/OpenZeppelin/openzeppelin-contracts/blob/master/contracts/utils/math/Math.sol\":11975:12039  if (value >> 8 > 0) {... */\n    tag_40:\n        /* \"https://github.com/OpenZeppelin/openzeppelin-contracts/blob/master/contracts/utils/math/Math.sol\":12065:12071  result */\n      dup1\n        /* \"https://github.com/OpenZeppelin/openzeppelin-contracts/blob/master/contracts/utils/math/Math.sol\":12058:12071  return result */\n      swap2\n      pop\n      pop\n        /* \"https://github.com/OpenZeppelin/openzeppelin-contracts/blob/master/contracts/utils/math/Math.sol\":11415:12078  function log256(uint256 value) internal pure returns (uint256) {... */\n      swap2\n      swap1\n      pop\n      jump\t// out\n        /* \"https://github.com/OpenZeppelin/openzeppelin-contracts/blob/master/contracts/utils/Strings.sol\":1818:2255  function toHexString(uint256 value, uint256 length) internal pure returns (string memory) {... */\n    tag_34:\n        /* \"https://github.com/OpenZeppelin/openzeppelin-contracts/blob/master/contracts/utils/Strings.sol\":1893:1906  string memory */\n      0x60\n        /* \"https://github.com/OpenZeppelin/openzeppelin-contracts/blob/master/contracts/utils/Strings.sol\":1918:1937  bytes memory buffer */\n      0x00\n        /* \"https://github.com/OpenZeppelin/openzeppelin-contracts/blob/master/contracts/utils/Strings.sol\":1963:1964  2 */\n      0x02\n        /* \"https://github.com/OpenZeppelin/openzeppelin-contracts/blob/master/contracts/utils/Strings.sol\":1954:1960  length */\n      dup4\n        /* \"https://github.com/OpenZeppelin/openzeppelin-contracts/blob/master/contracts/utils/Strings.sol\":1950:1951  2 */\n      0x02\n        /* \"https://github.com/OpenZeppelin/openzeppelin-contracts/blob/master/contracts/utils/Strings.sol\":1950:1960  2 * length */\n      tag_42\n      swap2\n      swap1\n      tag_43\n      jump\t// in\n    tag_42:\n        /* \"https://github.com/OpenZeppelin/openzeppelin-contracts/blob/master/contracts/utils/Strings.sol\":1950:1964  2 * length + 2 */\n      tag_44\n      swap2\n      swap1\n      tag_45\n      jump\t// in\n    tag_44:\n        /* \"https://github.com/OpenZeppelin/openzeppelin-contracts/blob/master/contracts/utils/Strings.sol\":1940:1965  new bytes(2 * length + 2) */\n      0xffffffffffffffff\n      dup2\n      gt\n      iszero\n      tag_46\n      jumpi\n      tag_47\n      tag_48\n      jump\t// in\n    tag_47:\n    tag_46:\n      mload(0x40)\n      swap1\n      dup1\n      dup3\n      mstore\n      dup1\n      0x1f\n      add\n      not(0x1f)\n      and\n      0x20\n      add\n      dup3\n      add\n      0x40\n      mstore\n      dup1\n      iszero\n      tag_49\n      jumpi\n      dup2\n      0x20\n      add\n      0x01\n      dup3\n      mul\n      dup1\n      calldatasize\n      dup4\n      calldatacopy\n      dup1\n      dup3\n      add\n      swap2\n      pop\n      pop\n      swap1\n      pop\n    tag_49:\n      pop\n        /* \"https://github.com/OpenZeppelin/openzeppelin-contracts/blob/master/contracts/utils/Strings.sol\":1918:1965  bytes memory buffer = new bytes(2 * length + 2) */\n      swap1\n      pop\n        /* \"https://github.com/OpenZeppelin/openzeppelin-contracts/blob/master/contracts/utils/Strings.sol\":1975:1990  buffer[0] = \"0\" */\n      0x3000000000000000000000000000000000000000000000000000000000000000\n        /* \"https://github.com/OpenZeppelin/openzeppelin-contracts/blob/master/contracts/utils/Strings.sol\":1975:1981  buffer */\n      dup2\n        /* \"https://github.com/OpenZeppelin/openzeppelin-contracts/blob/master/contracts/utils/Strings.sol\":1982:1983  0 */\n      0x00\n        /* \"https://github.com/OpenZeppelin/openzeppelin-contracts/blob/master/contracts/utils/Strings.sol\":1975:1984  buffer[0] */\n      dup2\n      mload\n      dup2\n      lt\n      tag_50\n      jumpi\n      tag_51\n      tag_52\n      jump\t// in\n    tag_51:\n    tag_50:\n      0x20\n      add\n      add\n        /* \"https://github.com/OpenZeppelin/openzeppelin-contracts/blob/master/contracts/utils/Strings.sol\":1975:1990  buffer[0] = \"0\" */\n      swap1\n      not(0xffffffffffffffffffffffffffffffffffffffffffffffffffffffffffffff)\n      and\n      swap1\n      dup2\n      0x00\n      byte\n      swap1\n      mstore8\n      pop\n        /* \"https://github.com/OpenZeppelin/openzeppelin-contracts/blob/master/contracts/utils/Strings.sol\":2000:2015  buffer[1] = \"x\" */\n      0x7800000000000000000000000000000000000000000000000000000000000000\n        /* \"https://github.com/OpenZeppelin/openzeppelin-contracts/blob/master/contracts/utils/Strings.sol\":2000:2006  buffer */\n      dup2\n        /* \"https://github.com/OpenZeppelin/openzeppelin-contracts/blob/master/contracts/utils/Strings.sol\":2007:2008  1 */\n      0x01\n        /* \"https://github.com/OpenZeppelin/openzeppelin-contracts/blob/master/contracts/utils/Strings.sol\":2000:2009  buffer[1] */\n      dup2\n      mload\n      dup2\n      lt\n      tag_53\n      jumpi\n      tag_54\n      tag_52\n      jump\t// in\n    tag_54:\n    tag_53:\n      0x20\n      add\n      add\n        /* \"https://github.com/OpenZeppelin/openzeppelin-contracts/blob/master/contracts/utils/Strings.sol\":2000:2015  buffer[1] = \"x\" */\n      swap1\n      not(0xffffffffffffffffffffffffffffffffffffffffffffffffffffffffffffff)\n      and\n      swap1\n      dup2\n      0x00\n      byte\n      swap1\n      mstore8\n      pop\n        /* \"https://github.com/OpenZeppelin/openzeppelin-contracts/blob/master/contracts/utils/Strings.sol\":2030:2039  uint256 i */\n      0x00\n        /* \"https://github.com/OpenZeppelin/openzeppelin-contracts/blob/master/contracts/utils/Strings.sol\":2055:2056  1 */\n      0x01\n        /* \"https://github.com/OpenZeppelin/openzeppelin-contracts/blob/master/contracts/utils/Strings.sol\":2046:2052  length */\n      dup5\n        /* \"https://github.com/OpenZeppelin/openzeppelin-contracts/blob/master/contracts/utils/Strings.sol\":2042:2043  2 */\n      0x02\n        /* \"https://github.com/OpenZeppelin/openzeppelin-contracts/blob/master/contracts/utils/Strings.sol\":2042:2052  2 * length */\n      tag_58\n      swap2\n      swap1\n      tag_43\n      jump\t// in\n    tag_58:\n        /* \"https://github.com/OpenZeppelin/openzeppelin-contracts/blob/master/contracts/utils/Strings.sol\":2042:2056  2 * length + 1 */\n      tag_59\n      swap2\n      swap1\n      tag_45\n      jump\t// in\n    tag_59:\n        /* \"https://github.com/OpenZeppelin/openzeppelin-contracts/blob/master/contracts/utils/Strings.sol\":2030:2056  uint256 i = 2 * length + 1 */\n      swap1\n      pop\n        /* \"https://github.com/OpenZeppelin/openzeppelin-contracts/blob/master/contracts/utils/Strings.sol\":2025:2153  for (uint256 i = 2 * length + 1; i > 1; --i) {... */\n    tag_55:\n        /* \"https://github.com/OpenZeppelin/openzeppelin-contracts/blob/master/contracts/utils/Strings.sol\":2062:2063  1 */\n      0x01\n        /* \"https://github.com/OpenZeppelin/openzeppelin-contracts/blob/master/contracts/utils/Strings.sol\":2058:2059  i */\n      dup2\n        /* \"https://github.com/OpenZeppelin/openzeppelin-contracts/blob/master/contracts/utils/Strings.sol\":2058:2063  i > 1 */\n      gt\n        /* \"https://github.com/OpenZeppelin/openzeppelin-contracts/blob/master/contracts/utils/Strings.sol\":2025:2153  for (uint256 i = 2 * length + 1; i > 1; --i) {... */\n      iszero\n      tag_56\n      jumpi\n        /* \"https://github.com/OpenZeppelin/openzeppelin-contracts/blob/master/contracts/utils/Strings.sol\":2096:2104  _SYMBOLS */\n      0x3031323334353637383961626364656600000000000000000000000000000000\n        /* \"https://github.com/OpenZeppelin/openzeppelin-contracts/blob/master/contracts/utils/Strings.sol\":2113:2116  0xf */\n      0x0f\n        /* \"https://github.com/OpenZeppelin/openzeppelin-contracts/blob/master/contracts/utils/Strings.sol\":2105:2110  value */\n      dup7\n        /* \"https://github.com/OpenZeppelin/openzeppelin-contracts/blob/master/contracts/utils/Strings.sol\":2105:2116  value & 0xf */\n      and\n        /* \"https://github.com/OpenZeppelin/openzeppelin-contracts/blob/master/contracts/utils/Strings.sol\":2096:2117  _SYMBOLS[value & 0xf] */\n      0x10\n      dup2\n      lt\n      tag_60\n      jumpi\n      tag_61\n      tag_52\n      jump\t// in\n    tag_61:\n    tag_60:\n      byte\n      0xf8\n      shl\n        /* \"https://github.com/OpenZeppelin/openzeppelin-contracts/blob/master/contracts/utils/Strings.sol\":2084:2090  buffer */\n      dup3\n        /* \"https://github.com/OpenZeppelin/openzeppelin-contracts/blob/master/contracts/utils/Strings.sol\":2091:2092  i */\n      dup3\n        /* \"https://github.com/OpenZeppelin/openzeppelin-contracts/blob/master/contracts/utils/Strings.sol\":2084:2093  buffer[i] */\n      dup2\n      mload\n      dup2\n      lt\n      tag_62\n      jumpi\n      tag_63\n      tag_52\n      jump\t// in\n    tag_63:\n    tag_62:\n      0x20\n      add\n      add\n        /* \"https://github.com/OpenZeppelin/openzeppelin-contracts/blob/master/contracts/utils/Strings.sol\":2084:2117  buffer[i] = _SYMBOLS[value & 0xf] */\n      swap1\n      not(0xffffffffffffffffffffffffffffffffffffffffffffffffffffffffffffff)\n      and\n      swap1\n      dup2\n      0x00\n      byte\n      swap1\n      mstore8\n      pop\n        /* \"https://github.com/OpenZeppelin/openzeppelin-contracts/blob/master/contracts/utils/Strings.sol\":2141:2142  4 */\n      0x04\n        /* \"https://github.com/OpenZeppelin/openzeppelin-contracts/blob/master/contracts/utils/Strings.sol\":2131:2142  value >>= 4 */\n      dup6\n      swap1\n      shr\n      swap5\n      pop\n        /* \"https://github.com/OpenZeppelin/openzeppelin-contracts/blob/master/contracts/utils/Strings.sol\":2065:2068  --i */\n      dup1\n      tag_64\n      swap1\n      tag_65\n      jump\t// in\n    tag_64:\n      swap1\n      pop\n        /* \"https://github.com/OpenZeppelin/openzeppelin-contracts/blob/master/contracts/utils/Strings.sol\":2025:2153  for (uint256 i = 2 * length + 1; i > 1; --i) {... */\n      jump(tag_55)\n    tag_56:\n      pop\n        /* \"https://github.com/OpenZeppelin/openzeppelin-contracts/blob/master/contracts/utils/Strings.sol\":2179:2180  0 */\n      0x00\n        /* \"https://github.com/OpenZeppelin/openzeppelin-contracts/blob/master/contracts/utils/Strings.sol\":2170:2175  value */\n      dup5\n        /* \"https://github.com/OpenZeppelin/openzeppelin-contracts/blob/master/contracts/utils/Strings.sol\":2170:2180  value == 0 */\n      eq\n        /* \"https://github.com/OpenZeppelin/openzeppelin-contracts/blob/master/contracts/utils/Strings.sol\":2162:2217  require(value == 0, \"Strings: hex length insufficient\") */\n      tag_66\n      jumpi\n      mload(0x40)\n      0x08c379a000000000000000000000000000000000000000000000000000000000\n      dup2\n      mstore\n      0x04\n      add\n      tag_67\n      swap1\n      tag_68\n      jump\t// in\n    tag_67:\n      mload(0x40)\n      dup1\n      swap2\n      sub\n      swap1\n      revert\n    tag_66:\n        /* \"https://github.com/OpenZeppelin/openzeppelin-contracts/blob/master/contracts/utils/Strings.sol\":2241:2247  buffer */\n      dup1\n        /* \"https://github.com/OpenZeppelin/openzeppelin-contracts/blob/master/contracts/utils/Strings.sol\":2227:2248  return string(buffer) */\n      swap2\n      pop\n      pop\n        /* \"https://github.com/OpenZeppelin/openzeppelin-contracts/blob/master/contracts/utils/Strings.sol\":1818:2255  function toHexString(uint256 value, uint256 length) internal pure returns (string memory) {... */\n      swap3\n      swap2\n      pop\n      pop\n      jump\t// out\n    tag_29:\n      dup3\n      dup1\n      sload\n      tag_69\n      swap1\n      tag_19\n      jump\t// in\n    tag_69:\n      swap1\n      0x00\n      mstore\n      keccak256(0x00, 0x20)\n      swap1\n      0x1f\n      add\n      0x20\n      swap1\n      div\n      dup2\n      add\n      swap3\n      dup3\n      tag_71\n      jumpi\n      0x00\n      dup6\n      sstore\n      jump(tag_70)\n    tag_71:\n      dup3\n      0x1f\n      lt\n      tag_72\n      jumpi\n      dup1\n      mload\n      not(0xff)\n      and\n      dup4\n      dup1\n      add\n      or\n      dup6\n      sstore\n      jump(tag_70)\n    tag_72:\n      dup3\n      dup1\n      add\n      0x01\n      add\n      dup6\n      sstore\n      dup3\n      iszero\n      tag_70\n      jumpi\n      swap2\n      dup3\n      add\n    tag_73:\n      dup3\n      dup2\n      gt\n      iszero\n      tag_74\n      jumpi\n      dup3\n      mload\n      dup3\n      sstore\n      swap2\n      0x20\n      add\n      swap2\n      swap1\n      0x01\n      add\n      swap1\n      jump(tag_73)\n    tag_74:\n    tag_70:\n      pop\n      swap1\n      pop\n      tag_75\n      swap2\n      swap1\n      tag_76\n      jump\t// in\n    tag_75:\n      pop\n      swap1\n      jump\t// out\n    tag_76:\n    tag_77:\n      dup1\n      dup3\n      gt\n      iszero\n      tag_78\n      jumpi\n      0x00\n      dup2\n      0x00\n      swap1\n      sstore\n      pop\n      0x01\n      add\n      jump(tag_77)\n    tag_78:\n      pop\n      swap1\n      jump\t// out\n        /* \"#utility.yul\":7:419   */\n    tag_80:\n        /* \"#utility.yul\":85:90   */\n      0x00\n        /* \"#utility.yul\":110:176   */\n      tag_82\n        /* \"#utility.yul\":126:175   */\n      tag_83\n        /* \"#utility.yul\":168:174   */\n      dup5\n        /* \"#utility.yul\":126:175   */\n      tag_84\n      jump\t// in\n    tag_83:\n        /* \"#utility.yul\":110:176   */\n      tag_85\n      jump\t// in\n    tag_82:\n        /* \"#utility.yul\":101:176   */\n      swap1\n      pop\n        /* \"#utility.yul\":199:205   */\n      dup3\n        /* \"#utility.yul\":192:197   */\n      dup2\n        /* \"#utility.yul\":185:206   */\n      mstore\n        /* \"#utility.yul\":237:241   */\n      0x20\n        /* \"#utility.yul\":230:235   */\n      dup2\n        /* \"#utility.yul\":226:242   */\n      add\n        /* \"#utility.yul\":275:278   */\n      dup5\n        /* \"#utility.yul\":266:272   */\n      dup5\n        /* \"#utility.yul\":261:264   */\n      dup5\n        /* \"#utility.yul\":257:273   */\n      add\n        /* \"#utility.yul\":254:279   */\n      gt\n        /* \"#utility.yul\":251:363   */\n      iszero\n      tag_86\n      jumpi\n        /* \"#utility.yul\":282:361   */\n      tag_87\n      tag_88\n      jump\t// in\n    tag_87:\n        /* \"#utility.yul\":251:363   */\n    tag_86:\n        /* \"#utility.yul\":372:413   */\n      tag_89\n        /* \"#utility.yul\":406:412   */\n      dup5\n        /* \"#utility.yul\":401:404   */\n      dup3\n        /* \"#utility.yul\":396:399   */\n      dup6\n        /* \"#utility.yul\":372:413   */\n      tag_90\n      jump\t// in\n    tag_89:\n        /* \"#utility.yul\":91:419   */\n      pop\n        /* \"#utility.yul\":7:419   */\n      swap4\n      swap3\n      pop\n      pop\n      pop\n      jump\t// out\n        /* \"#utility.yul\":439:779   */\n    tag_91:\n        /* \"#utility.yul\":495:500   */\n      0x00\n        /* \"#utility.yul\":544:547   */\n      dup3\n        /* \"#utility.yul\":537:541   */\n      0x1f\n        /* \"#utility.yul\":529:535   */\n      dup4\n        /* \"#utility.yul\":525:542   */\n      add\n        /* \"#utility.yul\":521:548   */\n      slt\n        /* \"#utility.yul\":511:633   */\n      tag_93\n      jumpi\n        /* \"#utility.yul\":552:631   */\n      tag_94\n      tag_95\n      jump\t// in\n    tag_94:\n        /* \"#utility.yul\":511:633   */\n    tag_93:\n        /* \"#utility.yul\":669:675   */\n      dup2\n        /* \"#utility.yul\":656:676   */\n      calldataload\n        /* \"#utility.yul\":694:773   */\n      tag_96\n        /* \"#utility.yul\":769:772   */\n      dup5\n        /* \"#utility.yul\":761:767   */\n      dup3\n        /* \"#utility.yul\":754:758   */\n      0x20\n        /* \"#utility.yul\":746:752   */\n      dup7\n        /* \"#utility.yul\":742:759   */\n      add\n        /* \"#utility.yul\":694:773   */\n      tag_80\n      jump\t// in\n    tag_96:\n        /* \"#utility.yul\":685:773   */\n      swap2\n      pop\n        /* \"#utility.yul\":501:779   */\n      pop\n        /* \"#utility.yul\":439:779   */\n      swap3\n      swap2\n      pop\n      pop\n      jump\t// out\n        /* \"#utility.yul\":785:1294   */\n    tag_15:\n        /* \"#utility.yul\":854:860   */\n      0x00\n        /* \"#utility.yul\":903:905   */\n      0x20\n        /* \"#utility.yul\":891:900   */\n      dup3\n        /* \"#utility.yul\":882:889   */\n      dup5\n        /* \"#utility.yul\":878:901   */\n      sub\n        /* \"#utility.yul\":874:906   */\n      slt\n        /* \"#utility.yul\":871:990   */\n      iszero\n      tag_98\n      jumpi\n        /* \"#utility.yul\":909:988   */\n      tag_99\n      tag_100\n      jump\t// in\n    tag_99:\n        /* \"#utility.yul\":871:990   */\n    tag_98:\n        /* \"#utility.yul\":1057:1058   */\n      0x00\n        /* \"#utility.yul\":1046:1055   */\n      dup3\n        /* \"#utility.yul\":1042:1059   */\n      add\n        /* \"#utility.yul\":1029:1060   */\n      calldataload\n        /* \"#utility.yul\":1087:1105   */\n      0xffffffffffffffff\n        /* \"#utility.yul\":1079:1085   */\n      dup2\n        /* \"#utility.yul\":1076:1106   */\n      gt\n        /* \"#utility.yul\":1073:1190   */\n      iszero\n      tag_101\n      jumpi\n        /* \"#utility.yul\":1109:1188   */\n      tag_102\n      tag_103\n      jump\t// in\n    tag_102:\n        /* \"#utility.yul\":1073:1190   */\n    tag_101:\n        /* \"#utility.yul\":1214:1277   */\n      tag_104\n        /* \"#utility.yul\":1269:1276   */\n      dup5\n        /* \"#utility.yul\":1260:1266   */\n      dup3\n        /* \"#utility.yul\":1249:1258   */\n      dup6\n        /* \"#utility.yul\":1245:1267   */\n      add\n        /* \"#utility.yul\":1214:1277   */\n      tag_91\n      jump\t// in\n    tag_104:\n        /* \"#utility.yul\":1204:1277   */\n      swap2\n      pop\n        /* \"#utility.yul\":1000:1287   */\n      pop\n        /* \"#utility.yul\":785:1294   */\n      swap3\n      swap2\n      pop\n      pop\n      jump\t// out\n        /* \"#utility.yul\":1300:1664   */\n    tag_105:\n        /* \"#utility.yul\":1388:1391   */\n      0x00\n        /* \"#utility.yul\":1416:1455   */\n      tag_107\n        /* \"#utility.yul\":1449:1454   */\n      dup3\n        /* \"#utility.yul\":1416:1455   */\n      tag_108\n      jump\t// in\n    tag_107:\n        /* \"#utility.yul\":1471:1542   */\n      tag_109\n        /* \"#utility.yul\":1535:1541   */\n      dup2\n        /* \"#utility.yul\":1530:1533   */\n      dup6\n        /* \"#utility.yul\":1471:1542   */\n      tag_110\n      jump\t// in\n    tag_109:\n        /* \"#utility.yul\":1464:1542   */\n      swap4\n      pop\n        /* \"#utility.yul\":1551:1603   */\n      tag_111\n        /* \"#utility.yul\":1596:1602   */\n      dup2\n        /* \"#utility.yul\":1591:1594   */\n      dup6\n        /* \"#utility.yul\":1584:1588   */\n      0x20\n        /* \"#utility.yul\":1577:1582   */\n      dup7\n        /* \"#utility.yul\":1573:1589   */\n      add\n        /* \"#utility.yul\":1551:1603   */\n      tag_112\n      jump\t// in\n    tag_111:\n        /* \"#utility.yul\":1628:1657   */\n      tag_113\n        /* \"#utility.yul\":1650:1656   */\n      dup2\n        /* \"#utility.yul\":1628:1657   */\n      tag_114\n      jump\t// in\n    tag_113:\n        /* \"#utility.yul\":1623:1626   */\n      dup5\n        /* \"#utility.yul\":1619:1658   */\n      add\n        /* \"#utility.yul\":1612:1658   */\n      swap2\n      pop\n        /* \"#utility.yul\":1392:1664   */\n      pop\n        /* \"#utility.yul\":1300:1664   */\n      swap3\n      swap2\n      pop\n      pop\n      jump\t// out\n        /* \"#utility.yul\":1670:2036   */\n    tag_115:\n        /* \"#utility.yul\":1812:1815   */\n      0x00\n        /* \"#utility.yul\":1833:1900   */\n      tag_117\n        /* \"#utility.yul\":1897:1899   */\n      0x20\n        /* \"#utility.yul\":1892:1895   */\n      dup4\n        /* \"#utility.yul\":1833:1900   */\n      tag_110\n      jump\t// in\n    tag_117:\n        /* \"#utility.yul\":1826:1900   */\n      swap2\n      pop\n        /* \"#utility.yul\":1909:2002   */\n      tag_118\n        /* \"#utility.yul\":1998:2001   */\n      dup3\n        /* \"#utility.yul\":1909:2002   */\n      tag_119\n      jump\t// in\n    tag_118:\n        /* \"#utility.yul\":2027:2029   */\n      0x20\n        /* \"#utility.yul\":2022:2025   */\n      dup3\n        /* \"#utility.yul\":2018:2030   */\n      add\n        /* \"#utility.yul\":2011:2030   */\n      swap1\n      pop\n        /* \"#utility.yul\":1670:2036   */\n      swap2\n      swap1\n      pop\n      jump\t// out\n        /* \"#utility.yul\":2042:2355   */\n    tag_9:\n        /* \"#utility.yul\":2155:2159   */\n      0x00\n        /* \"#utility.yul\":2193:2195   */\n      0x20\n        /* \"#utility.yul\":2182:2191   */\n      dup3\n        /* \"#utility.yul\":2178:2196   */\n      add\n        /* \"#utility.yul\":2170:2196   */\n      swap1\n      pop\n        /* \"#utility.yul\":2242:2251   */\n      dup2\n        /* \"#utility.yul\":2236:2240   */\n      dup2\n        /* \"#utility.yul\":2232:2252   */\n      sub\n        /* \"#utility.yul\":2228:2229   */\n      0x00\n        /* \"#utility.yul\":2217:2226   */\n      dup4\n        /* \"#utility.yul\":2213:2230   */\n      add\n        /* \"#utility.yul\":2206:2253   */\n      mstore\n        /* \"#utility.yul\":2270:2348   */\n      tag_121\n        /* \"#utility.yul\":2343:2347   */\n      dup2\n        /* \"#utility.yul\":2334:2340   */\n      dup5\n        /* \"#utility.yul\":2270:2348   */\n      tag_105\n      jump\t// in\n    tag_121:\n        /* \"#utility.yul\":2262:2348   */\n      swap1\n      pop\n        /* \"#utility.yul\":2042:2355   */\n      swap3\n      swap2\n      pop\n      pop\n      jump\t// out\n        /* \"#utility.yul\":2361:2780   */\n    tag_68:\n        /* \"#utility.yul\":2527:2531   */\n      0x00\n        /* \"#utility.yul\":2565:2567   */\n      0x20\n        /* \"#utility.yul\":2554:2563   */\n      dup3\n        /* \"#utility.yul\":2550:2568   */\n      add\n        /* \"#utility.yul\":2542:2568   */\n      swap1\n      pop\n        /* \"#utility.yul\":2614:2623   */\n      dup2\n        /* \"#utility.yul\":2608:2612   */\n      dup2\n        /* \"#utility.yul\":2604:2624   */\n      sub\n        /* \"#utility.yul\":2600:2601   */\n      0x00\n        /* \"#utility.yul\":2589:2598   */\n      dup4\n        /* \"#utility.yul\":2585:2602   */\n      add\n        /* \"#utility.yul\":2578:2625   */\n      mstore\n        /* \"#utility.yul\":2642:2773   */\n      tag_123\n        /* \"#utility.yul\":2768:2772   */\n      dup2\n        /* \"#utility.yul\":2642:2773   */\n      tag_115\n      jump\t// in\n    tag_123:\n        /* \"#utility.yul\":2634:2773   */\n      swap1\n      pop\n        /* \"#utility.yul\":2361:2780   */\n      swap2\n      swap1\n      pop\n      jump\t// out\n        /* \"#utility.yul\":2786:2915   */\n    tag_85:\n        /* \"#utility.yul\":2820:2826   */\n      0x00\n        /* \"#utility.yul\":2847:2867   */\n      tag_125\n      tag_126\n      jump\t// in\n    tag_125:\n        /* \"#utility.yul\":2837:2867   */\n      swap1\n      pop\n        /* \"#utility.yul\":2876:2909   */\n      tag_127\n        /* \"#utility.yul\":2904:2908   */\n      dup3\n        /* \"#utility.yul\":2896:2902   */\n      dup3\n        /* \"#utility.yul\":2876:2909   */\n      tag_128\n      jump\t// in\n    tag_127:\n        /* \"#utility.yul\":2786:2915   */\n      swap2\n      swap1\n      pop\n      jump\t// out\n        /* \"#utility.yul\":2921:2996   */\n    tag_126:\n        /* \"#utility.yul\":2954:2960   */\n      0x00\n        /* \"#utility.yul\":2987:2989   */\n      0x40\n        /* \"#utility.yul\":2981:2990   */\n      mload\n        /* \"#utility.yul\":2971:2990   */\n      swap1\n      pop\n        /* \"#utility.yul\":2921:2996   */\n      swap1\n      jump\t// out\n        /* \"#utility.yul\":3002:3310   */\n    tag_84:\n        /* \"#utility.yul\":3064:3068   */\n      0x00\n        /* \"#utility.yul\":3154:3172   */\n      0xffffffffffffffff\n        /* \"#utility.yul\":3146:3152   */\n      dup3\n        /* \"#utility.yul\":3143:3173   */\n      gt\n        /* \"#utility.yul\":3140:3196   */\n      iszero\n      tag_131\n      jumpi\n        /* \"#utility.yul\":3176:3194   */\n      tag_132\n      tag_48\n      jump\t// in\n    tag_132:\n        /* \"#utility.yul\":3140:3196   */\n    tag_131:\n        /* \"#utility.yul\":3214:3243   */\n      tag_133\n        /* \"#utility.yul\":3236:3242   */\n      dup3\n        /* \"#utility.yul\":3214:3243   */\n      tag_114\n      jump\t// in\n    tag_133:\n        /* \"#utility.yul\":3206:3243   */\n      swap1\n      pop\n        /* \"#utility.yul\":3298:3302   */\n      0x20\n        /* \"#utility.yul\":3292:3296   */\n      dup2\n        /* \"#utility.yul\":3288:3303   */\n      add\n        /* \"#utility.yul\":3280:3303   */\n      swap1\n      pop\n        /* \"#utility.yul\":3002:3310   */\n      swap2\n      swap1\n      pop\n      jump\t// out\n        /* \"#utility.yul\":3316:3415   */\n    tag_108:\n        /* \"#utility.yul\":3368:3374   */\n      0x00\n        /* \"#utility.yul\":3402:3407   */\n      dup2\n        /* \"#utility.yul\":3396:3408   */\n      mload\n        /* \"#utility.yul\":3386:3408   */\n      swap1\n      pop\n        /* \"#utility.yul\":3316:3415   */\n      swap2\n      swap1\n      pop\n      jump\t// out\n        /* \"#utility.yul\":3421:3590   */\n    tag_110:\n        /* \"#utility.yul\":3505:3516   */\n      0x00\n        /* \"#utility.yul\":3539:3545   */\n      dup3\n        /* \"#utility.yul\":3534:3537   */\n      dup3\n        /* \"#utility.yul\":3527:3546   */\n      mstore\n        /* \"#utility.yul\":3579:3583   */\n      0x20\n        /* \"#utility.yul\":3574:3577   */\n      dup3\n        /* \"#utility.yul\":3570:3584   */\n      add\n        /* \"#utility.yul\":3555:3584   */\n      swap1\n      pop\n        /* \"#utility.yul\":3421:3590   */\n      swap3\n      swap2\n      pop\n      pop\n      jump\t// out\n        /* \"#utility.yul\":3596:3901   */\n    tag_45:\n        /* \"#utility.yul\":3636:3639   */\n      0x00\n        /* \"#utility.yul\":3655:3675   */\n      tag_137\n        /* \"#utility.yul\":3673:3674   */\n      dup3\n        /* \"#utility.yul\":3655:3675   */\n      tag_138\n      jump\t// in\n    tag_137:\n        /* \"#utility.yul\":3650:3675   */\n      swap2\n      pop\n        /* \"#utility.yul\":3689:3709   */\n      tag_139\n        /* \"#utility.yul\":3707:3708   */\n      dup4\n        /* \"#utility.yul\":3689:3709   */\n      tag_138\n      jump\t// in\n    tag_139:\n        /* \"#utility.yul\":3684:3709   */\n      swap3\n      pop\n        /* \"#utility.yul\":3843:3844   */\n      dup3\n        /* \"#utility.yul\":3775:3841   */\n      0xffffffffffffffffffffffffffffffffffffffffffffffffffffffffffffffff\n        /* \"#utility.yul\":3771:3845   */\n      sub\n        /* \"#utility.yul\":3768:3769   */\n      dup3\n        /* \"#utility.yul\":3765:3846   */\n      gt\n        /* \"#utility.yul\":3762:3869   */\n      iszero\n      tag_140\n      jumpi\n        /* \"#utility.yul\":3849:3867   */\n      tag_141\n      tag_142\n      jump\t// in\n    tag_141:\n        /* \"#utility.yul\":3762:3869   */\n    tag_140:\n        /* \"#utility.yul\":3893:3894   */\n      dup3\n        /* \"#utility.yul\":3890:3891   */\n      dup3\n        /* \"#utility.yul\":3886:3895   */\n      add\n        /* \"#utility.yul\":3879:3895   */\n      swap1\n      pop\n        /* \"#utility.yul\":3596:3901   */\n      swap3\n      swap2\n      pop\n      pop\n      jump\t// out\n        /* \"#utility.yul\":3907:4255   */\n    tag_43:\n        /* \"#utility.yul\":3947:3954   */\n      0x00\n        /* \"#utility.yul\":3970:3990   */\n      tag_144\n        /* \"#utility.yul\":3988:3989   */\n      dup3\n        /* \"#utility.yul\":3970:3990   */\n      tag_138\n      jump\t// in\n    tag_144:\n        /* \"#utility.yul\":3965:3990   */\n      swap2\n      pop\n        /* \"#utility.yul\":4004:4024   */\n      tag_145\n        /* \"#utility.yul\":4022:4023   */\n      dup4\n        /* \"#utility.yul\":4004:4024   */\n      tag_138\n      jump\t// in\n    tag_145:\n        /* \"#utility.yul\":3999:4024   */\n      swap3\n      pop\n        /* \"#utility.yul\":4192:4193   */\n      dup2\n        /* \"#utility.yul\":4124:4190   */\n      0xffffffffffffffffffffffffffffffffffffffffffffffffffffffffffffffff\n        /* \"#utility.yul\":4120:4194   */\n      div\n        /* \"#utility.yul\":4117:4118   */\n      dup4\n        /* \"#utility.yul\":4114:4195   */\n      gt\n        /* \"#utility.yul\":4109:4110   */\n      dup3\n        /* \"#utility.yul\":4102:4111   */\n      iszero\n        /* \"#utility.yul\":4095:4112   */\n      iszero\n        /* \"#utility.yul\":4091:4196   */\n      and\n        /* \"#utility.yul\":4088:4219   */\n      iszero\n      tag_146\n      jumpi\n        /* \"#utility.yul\":4199:4217   */\n      tag_147\n      tag_142\n      jump\t// in\n    tag_147:\n        /* \"#utility.yul\":4088:4219   */\n    tag_146:\n        /* \"#utility.yul\":4247:4248   */\n      dup3\n        /* \"#utility.yul\":4244:4245   */\n      dup3\n        /* \"#utility.yul\":4240:4249   */\n      mul\n        /* \"#utility.yul\":4229:4249   */\n      swap1\n      pop\n        /* \"#utility.yul\":3907:4255   */\n      swap3\n      swap2\n      pop\n      pop\n      jump\t// out\n        /* \"#utility.yul\":4261:4338   */\n    tag_138:\n        /* \"#utility.yul\":4298:4305   */\n      0x00\n        /* \"#utility.yul\":4327:4332   */\n      dup2\n        /* \"#utility.yul\":4316:4332   */\n      swap1\n      pop\n        /* \"#utility.yul\":4261:4338   */\n      swap2\n      swap1\n      pop\n      jump\t// out\n        /* \"#utility.yul\":4344:4498   */\n    tag_90:\n        /* \"#utility.yul\":4428:4434   */\n      dup3\n        /* \"#utility.yul\":4423:4426   */\n      dup2\n        /* \"#utility.yul\":4418:4421   */\n      dup4\n        /* \"#utility.yul\":4405:4435   */\n      calldatacopy\n        /* \"#utility.yul\":4490:4491   */\n      0x00\n        /* \"#utility.yul\":4481:4487   */\n      dup4\n        /* \"#utility.yul\":4476:4479   */\n      dup4\n        /* \"#utility.yul\":4472:4488   */\n      add\n        /* \"#utility.yul\":4465:4492   */\n      mstore\n        /* \"#utility.yul\":4344:4498   */\n      pop\n      pop\n      pop\n      jump\t// out\n        /* \"#utility.yul\":4504:4811   */\n    tag_112:\n        /* \"#utility.yul\":4572:4573   */\n      0x00\n        /* \"#utility.yul\":4582:4695   */\n    tag_151:\n        /* \"#utility.yul\":4596:4602   */\n      dup4\n        /* \"#utility.yul\":4593:4594   */\n      dup2\n        /* \"#utility.yul\":4590:4603   */\n      lt\n        /* \"#utility.yul\":4582:4695   */\n      iszero\n      tag_153\n      jumpi\n        /* \"#utility.yul\":4681:4682   */\n      dup1\n        /* \"#utility.yul\":4676:4679   */\n      dup3\n        /* \"#utility.yul\":4672:4683   */\n      add\n        /* \"#utility.yul\":4666:4684   */\n      mload\n        /* \"#utility.yul\":4662:4663   */\n      dup2\n        /* \"#utility.yul\":4657:4660   */\n      dup5\n        /* \"#utility.yul\":4653:4664   */\n      add\n        /* \"#utility.yul\":4646:4685   */\n      mstore\n        /* \"#utility.yul\":4618:4620   */\n      0x20\n        /* \"#utility.yul\":4615:4616   */\n      dup2\n        /* \"#utility.yul\":4611:4621   */\n      add\n        /* \"#utility.yul\":4606:4621   */\n      swap1\n      pop\n        /* \"#utility.yul\":4582:4695   */\n      jump(tag_151)\n    tag_153:\n        /* \"#utility.yul\":4713:4719   */\n      dup4\n        /* \"#utility.yul\":4710:4711   */\n      dup2\n        /* \"#utility.yul\":4707:4720   */\n      gt\n        /* \"#utility.yul\":4704:4805   */\n      iszero\n      tag_154\n      jumpi\n        /* \"#utility.yul\":4793:4794   */\n      0x00\n        /* \"#utility.yul\":4784:4790   */\n      dup5\n        /* \"#utility.yul\":4779:4782   */\n      dup5\n        /* \"#utility.yul\":4775:4791   */\n      add\n        /* \"#utility.yul\":4768:4795   */\n      mstore\n        /* \"#utility.yul\":4704:4805   */\n    tag_154:\n        /* \"#utility.yul\":4553:4811   */\n      pop\n        /* \"#utility.yul\":4504:4811   */\n      pop\n      pop\n      pop\n      jump\t// out\n        /* \"#utility.yul\":4817:4988   */\n    tag_65:\n        /* \"#utility.yul\":4856:4859   */\n      0x00\n        /* \"#utility.yul\":4879:4903   */\n      tag_156\n        /* \"#utility.yul\":4897:4902   */\n      dup3\n        /* \"#utility.yul\":4879:4903   */\n      tag_138\n      jump\t// in\n    tag_156:\n        /* \"#utility.yul\":4870:4903   */\n      swap2\n      pop\n        /* \"#utility.yul\":4925:4929   */\n      0x00\n        /* \"#utility.yul\":4918:4923   */\n      dup3\n        /* \"#utility.yul\":4915:4930   */\n      eq\n        /* \"#utility.yul\":4912:4953   */\n      iszero\n      tag_157\n      jumpi\n        /* \"#utility.yul\":4933:4951   */\n      tag_158\n      tag_142\n      jump\t// in\n    tag_158:\n        /* \"#utility.yul\":4912:4953   */\n    tag_157:\n        /* \"#utility.yul\":4980:4981   */\n      0x01\n        /* \"#utility.yul\":4973:4978   */\n      dup3\n        /* \"#utility.yul\":4969:4982   */\n      sub\n        /* \"#utility.yul\":4962:4982   */\n      swap1\n      pop\n        /* \"#utility.yul\":4817:4988   */\n      swap2\n      swap1\n      pop\n      jump\t// out\n        /* \"#utility.yul\":4994:5314   */\n    tag_19:\n        /* \"#utility.yul\":5038:5044   */\n      0x00\n        /* \"#utility.yul\":5075:5076   */\n      0x02\n        /* \"#utility.yul\":5069:5073   */\n      dup3\n        /* \"#utility.yul\":5065:5077   */\n      div\n        /* \"#utility.yul\":5055:5077   */\n      swap1\n      pop\n        /* \"#utility.yul\":5122:5123   */\n      0x01\n        /* \"#utility.yul\":5116:5120   */\n      dup3\n        /* \"#utility.yul\":5112:5124   */\n      and\n        /* \"#utility.yul\":5143:5161   */\n      dup1\n        /* \"#utility.yul\":5133:5214   */\n      tag_160\n      jumpi\n        /* \"#utility.yul\":5199:5203   */\n      0x7f\n        /* \"#utility.yul\":5191:5197   */\n      dup3\n        /* \"#utility.yul\":5187:5204   */\n      and\n        /* \"#utility.yul\":5177:5204   */\n      swap2\n      pop\n        /* \"#utility.yul\":5133:5214   */\n    tag_160:\n        /* \"#utility.yul\":5261:5263   */\n      0x20\n        /* \"#utility.yul\":5253:5259   */\n      dup3\n        /* \"#utility.yul\":5250:5264   */\n      lt\n        /* \"#utility.yul\":5230:5248   */\n      dup2\n        /* \"#utility.yul\":5227:5265   */\n      eq\n        /* \"#utility.yul\":5224:5308   */\n      iszero\n      tag_161\n      jumpi\n        /* \"#utility.yul\":5280:5298   */\n      tag_162\n      tag_163\n      jump\t// in\n    tag_162:\n        /* \"#utility.yul\":5224:5308   */\n    tag_161:\n        /* \"#utility.yul\":5045:5314   */\n      pop\n        /* \"#utility.yul\":4994:5314   */\n      swap2\n      swap1\n      pop\n      jump\t// out\n        /* \"#utility.yul\":5320:5601   */\n    tag_128:\n        /* \"#utility.yul\":5403:5430   */\n      tag_165\n        /* \"#utility.yul\":5425:5429   */\n      dup3\n        /* \"#utility.yul\":5403:5430   */\n      tag_114\n      jump\t// in\n    tag_165:\n        /* \"#utility.yul\":5395:5401   */\n      dup2\n        /* \"#utility.yul\":5391:5431   */\n      add\n        /* \"#utility.yul\":5533:5539   */\n      dup2\n        /* \"#utility.yul\":5521:5531   */\n      dup2\n        /* \"#utility.yul\":5518:5540   */\n      lt\n        /* \"#utility.yul\":5497:5515   */\n      0xffffffffffffffff\n        /* \"#utility.yul\":5485:5495   */\n      dup3\n        /* \"#utility.yul\":5482:5516   */\n      gt\n        /* \"#utility.yul\":5479:5541   */\n      or\n        /* \"#utility.yul\":5476:5564   */\n      iszero\n      tag_166\n      jumpi\n        /* \"#utility.yul\":5544:5562   */\n      tag_167\n      tag_48\n      jump\t// in\n    tag_167:\n        /* \"#utility.yul\":5476:5564   */\n    tag_166:\n        /* \"#utility.yul\":5584:5594   */\n      dup1\n        /* \"#utility.yul\":5580:5582   */\n      0x40\n        /* \"#utility.yul\":5573:5595   */\n      mstore\n        /* \"#utility.yul\":5363:5601   */\n      pop\n        /* \"#utility.yul\":5320:5601   */\n      pop\n      pop\n      jump\t// out\n        /* \"#utility.yul\":5607:5787   */\n    tag_142:\n        /* \"#utility.yul\":5655:5732   */\n      0x4e487b7100000000000000000000000000000000000000000000000000000000\n        /* \"#utility.yul\":5652:5653   */\n      0x00\n        /* \"#utility.yul\":5645:5733   */\n      mstore\n        /* \"#utility.yul\":5752:5756   */\n      0x11\n        /* \"#utility.yul\":5749:5750   */\n      0x04\n        /* \"#utility.yul\":5742:5757   */\n      mstore\n        /* \"#utility.yul\":5776:5780   */\n      0x24\n        /* \"#utility.yul\":5773:5774   */\n      0x00\n        /* \"#utility.yul\":5766:5781   */\n      revert\n        /* \"#utility.yul\":5793:5973   */\n    tag_163:\n        /* \"#utility.yul\":5841:5918   */\n      0x4e487b7100000000000000000000000000000000000000000000000000000000\n        /* \"#utility.yul\":5838:5839   */\n      0x00\n        /* \"#utility.yul\":5831:5919   */\n      mstore\n        /* \"#utility.yul\":5938:5942   */\n      0x22\n        /* \"#utility.yul\":5935:5936   */\n      0x04\n        /* \"#utility.yul\":5928:5943   */\n      mstore\n        /* \"#utility.yul\":5962:5966   */\n      0x24\n        /* \"#utility.yul\":5959:5960   */\n      0x00\n        /* \"#utility.yul\":5952:5967   */\n      revert\n        /* \"#utility.yul\":5979:6159   */\n    tag_52:\n        /* \"#utility.yul\":6027:6104   */\n      0x4e487b7100000000000000000000000000000000000000000000000000000000\n        /* \"#utility.yul\":6024:6025   */\n      0x00\n        /* \"#utility.yul\":6017:6105   */\n      mstore\n        /* \"#utility.yul\":6124:6128   */\n      0x32\n        /* \"#utility.yul\":6121:6122   */\n      0x04\n        /* \"#utility.yul\":6114:6129   */\n      mstore\n        /* \"#utility.yul\":6148:6152   */\n      0x24\n        /* \"#utility.yul\":6145:6146   */\n      0x00\n        /* \"#utility.yul\":6138:6153   */\n      revert\n        /* \"#utility.yul\":6165:6345   */\n    tag_48:\n        /* \"#utility.yul\":6213:6290   */\n      0x4e487b7100000000000000000000000000000000000000000000000000000000\n        /* \"#utility.yul\":6210:6211   */\n      0x00\n        /* \"#utility.yul\":6203:6291   */\n      mstore\n        /* \"#utility.yul\":6310:6314   */\n      0x41\n        /* \"#utility.yul\":6307:6308   */\n      0x04\n        /* \"#utility.yul\":6300:6315   */\n      mstore\n        /* \"#utility.yul\":6334:6338   */\n      0x24\n        /* \"#utility.yul\":6331:6332   */\n      0x00\n        /* \"#utility.yul\":6324:6339   */\n      revert\n        /* \"#utility.yul\":6351:6468   */\n    tag_95:\n        /* \"#utility.yul\":6460:6461   */\n      0x00\n        /* \"#utility.yul\":6457:6458   */\n      dup1\n        /* \"#utility.yul\":6450:6462   */\n      revert\n        /* \"#utility.yul\":6474:6591   */\n    tag_88:\n        /* \"#utility.yul\":6583:6584   */\n      0x00\n        /* \"#utility.yul\":6580:6581   */\n      dup1\n        /* \"#utility.yul\":6573:6585   */\n      revert\n        /* \"#utility.yul\":6597:6714   */\n    tag_103:\n        /* \"#utility.yul\":6706:6707   */\n      0x00\n        /* \"#utility.yul\":6703:6704   */\n      dup1\n        /* \"#utility.yul\":6696:6708   */\n      revert\n        /* \"#utility.yul\":6720:6837   */\n    tag_100:\n        /* \"#utility.yul\":6829:6830   */\n      0x00\n        /* \"#utility.yul\":6826:6827   */\n      dup1\n        /* \"#utility.yul\":6819:6831   */\n      revert\n        /* \"#utility.yul\":6843:6945   */\n    tag_114:\n        /* \"#utility.yul\":6884:6890   */\n      0x00\n        /* \"#utility.yul\":6935:6937   */\n      0x1f\n        /* \"#utility.yul\":6931:6938   */\n      not\n        /* \"#utility.yul\":6926:6928   */\n      0x1f\n        /* \"#utility.yul\":6919:6924   */\n      dup4\n        /* \"#utility.yul\":6915:6929   */\n      add\n        /* \"#utility.yul\":6911:6939   */\n      and\n        /* \"#utility.yul\":6901:6939   */\n      swap1\n      pop\n        /* \"#utility.yul\":6843:6945   */\n      swap2\n      swap1\n      pop\n      jump\t// out\n        /* \"#utility.yul\":6951:7133   */\n    tag_119:\n        /* \"#utility.yul\":7091:7125   */\n      0x537472696e67733a20686578206c656e67746820696e73756666696369656e74\n        /* \"#utility.yul\":7087:7088   */\n      0x00\n        /* \"#utility.yul\":7079:7085   */\n      dup3\n        /* \"#utility.yul\":7075:7089   */\n      add\n        /* \"#utility.yul\":7068:7126   */\n      mstore\n        /* \"#utility.yul\":6951:7133   */\n      pop\n      jump\t// out\n\n    auxdata: 0xa2646970667358221220bc23077dddf8ca386ba2e9387405c4ea8f2cc9f7be9576ddb3b48f21507326b064736f6c63430008070033\n}\n",
				"bytecode": {
					"linkReferences": {},
					"object": "60806040526040518060400160405280600581526020017f48656c6c6f0000000000000000000000000000000000000000000000000000008152506000908051906020019061004f929190610068565b506104d260015534801561006257600080fd5b5061016c565b8280546100749061010b565b90600052602060002090601f01602090048101928261009657600085556100dd565b82601f106100af57805160ff19168380011785556100dd565b828001600101855582156100dd579182015b828111156100dc5782518255916020019190600101906100c1565b5b5090506100ea91906100ee565b5090565b5b808211156101075760008160009055506001016100ef565b5090565b6000600282049050600182168061012357607f821691505b602082108114156101375761013661013d565b5b50919050565b7f4e487b7100000000000000000000000000000000000000000000000000000000600052602260045260246000fd5b6109818061017b6000396000f3fe608060405234801561001057600080fd5b50600436106100415760003560e01c806393ebbd9214610046578063bd1b853114610064578063bfc6606614610082575b600080fd5b61004e61009e565b60405161005b9190610604565b60405180910390f35b61006c610130565b6040516100799190610604565b60405180910390f35b61009c6004803603810190610097919061055f565b610148565b005b6060600080546100ad906107de565b80601f01602080910402602001604051908101604052809291908181526020018280546100d9906107de565b80156101265780601f106100fb57610100808354040283529160200191610126565b820191906000526020600020905b81548152906001019060200180831161010957829003601f168201915b5050505050905090565b6060600061013f600154610162565b90508091505090565b806000908051906020019061015e92919061044c565b5050565b606061017982600161017385610180565b01610210565b9050919050565b600080600090506000608084901c11156101a257608083901c92506010810190505b6000604084901c11156101bd57604083901c92506008810190505b6000602084901c11156101d857602083901c92506004810190505b6000601084901c11156101f357601083901c92506002810190505b6000600884901c1115610207576001810190505b80915050919050565b606060006002836002610223919061070e565b61022d91906106b8565b67ffffffffffffffff811115610246576102456108ce565b5b6040519080825280601f01601f1916602001820160405280156102785781602001600182028036833780820191505090505b5090507f3000000000000000000000000000000000000000000000000000000000000000816000815181106102b0576102af61089f565b5b60200101907effffffffffffffffffffffffffffffffffffffffffffffffffffffffffffff1916908160001a9053507f7800000000000000000000000000000000000000000000000000000000000000816001815181106103145761031361089f565b5b60200101907effffffffffffffffffffffffffffffffffffffffffffffffffffffffffffff1916908160001a90535060006001846002610354919061070e565b61035e91906106b8565b90505b60018111156103fe577f3031323334353637383961626364656600000000000000000000000000000000600f8616601081106103a05761039f61089f565b5b1a60f81b8282815181106103b7576103b661089f565b5b60200101907effffffffffffffffffffffffffffffffffffffffffffffffffffffffffffff1916908160001a905350600485901c9450806103f7906107b4565b9050610361565b5060008414610442576040517f08c379a000000000000000000000000000000000000000000000000000000000815260040161043990610626565b60405180910390fd5b8091505092915050565b828054610458906107de565b90600052602060002090601f01602090048101928261047a57600085556104c1565b82601f1061049357805160ff19168380011785556104c1565b828001600101855582156104c1579182015b828111156104c05782518255916020019190600101906104a5565b5b5090506104ce91906104d2565b5090565b5b808211156104eb5760008160009055506001016104d3565b5090565b60006105026104fd8461066b565b610646565b90508281526020810184848401111561051e5761051d610902565b5b610529848285610772565b509392505050565b600082601f830112610546576105456108fd565b5b81356105568482602086016104ef565b91505092915050565b6000602082840312156105755761057461090c565b5b600082013567ffffffffffffffff81111561059357610592610907565b5b61059f84828501610531565b91505092915050565b60006105b38261069c565b6105bd81856106a7565b93506105cd818560208601610781565b6105d681610911565b840191505092915050565b60006105ee6020836106a7565b91506105f982610922565b602082019050919050565b6000602082019050818103600083015261061e81846105a8565b905092915050565b6000602082019050818103600083015261063f816105e1565b9050919050565b6000610650610661565b905061065c8282610810565b919050565b6000604051905090565b600067ffffffffffffffff821115610686576106856108ce565b5b61068f82610911565b9050602081019050919050565b600081519050919050565b600082825260208201905092915050565b60006106c382610768565b91506106ce83610768565b9250827fffffffffffffffffffffffffffffffffffffffffffffffffffffffffffffffff0382111561070357610702610841565b5b828201905092915050565b600061071982610768565b915061072483610768565b9250817fffffffffffffffffffffffffffffffffffffffffffffffffffffffffffffffff048311821515161561075d5761075c610841565b5b828202905092915050565b6000819050919050565b82818337600083830152505050565b60005b8381101561079f578082015181840152602081019050610784565b838111156107ae576000848401525b50505050565b60006107bf82610768565b915060008214156107d3576107d2610841565b5b600182039050919050565b600060028204905060018216806107f657607f821691505b6020821081141561080a57610809610870565b5b50919050565b61081982610911565b810181811067ffffffffffffffff82111715610838576108376108ce565b5b80604052505050565b7f4e487b7100000000000000000000000000000000000000000000000000000000600052601160045260246000fd5b7f4e487b7100000000000000000000000000000000000000000000000000000000600052602260045260246000fd5b7f4e487b7100000000000000000000000000000000000000000000000000000000600052603260045260246000fd5b7f4e487b7100000000000000000000000000000000000000000000000000000000600052604160045260246000fd5b600080fd5b600080fd5b600080fd5b600080fd5b6000601f19601f8301169050919050565b7f537472696e67733a20686578206c656e67746820696e73756666696369656e7460008201525056fea2646970667358221220bc23077dddf8ca386ba2e9387405c4ea8f2cc9f7be9576ddb3b48f21507326b064736f6c63430008070033",
					"opcodes": "PUSH1 0x80 PUSH1 0x40 MSTORE PUSH1 0x40 MLOAD DUP1 PUSH1 0x40 ADD PUSH1 0x40 MSTORE DUP1 PUSH1 0x5 DUP2 MSTORE PUSH1 0x20 ADD PUSH32 0x48656C6C6F000000000000000000000000000000000000000000000000000000 DUP2 MSTORE POP PUSH1 0x0 SWAP1 DUP1 MLOAD SWAP1 PUSH1 0x20 ADD SWAP1 PUSH2 0x4F SWAP3 SWAP2 SWAP1 PUSH2 0x68 JUMP JUMPDEST POP PUSH2 0x4D2 PUSH1 0x1 SSTORE CALLVALUE DUP1 ISZERO PUSH2 0x62 JUMPI PUSH1 0x0 DUP1 REVERT JUMPDEST POP PUSH2 0x16C JUMP JUMPDEST DUP3 DUP1 SLOAD PUSH2 0x74 SWAP1 PUSH2 0x10B JUMP JUMPDEST SWAP1 PUSH1 0x0 MSTORE PUSH1 0x20 PUSH1 0x0 KECCAK256 SWAP1 PUSH1 0x1F ADD PUSH1 0x20 SWAP1 DIV DUP2 ADD SWAP3 DUP3 PUSH2 0x96 JUMPI PUSH1 0x0 DUP6 SSTORE PUSH2 0xDD JUMP JUMPDEST DUP3 PUSH1 0x1F LT PUSH2 0xAF JUMPI DUP1 MLOAD PUSH1 0xFF NOT AND DUP4 DUP1 ADD OR DUP6 SSTORE PUSH2 0xDD JUMP JUMPDEST DUP3 DUP1 ADD PUSH1 0x1 ADD DUP6 SSTORE DUP3 ISZERO PUSH2 0xDD JUMPI SWAP2 DUP3 ADD JUMPDEST DUP3 DUP2 GT ISZERO PUSH2 0xDC JUMPI DUP3 MLOAD DUP3 SSTORE SWAP2 PUSH1 0x20 ADD SWAP2 SWAP1 PUSH1 0x1 ADD SWAP1 PUSH2 0xC1 JUMP JUMPDEST JUMPDEST POP SWAP1 POP PUSH2 0xEA SWAP2 SWAP1 PUSH2 0xEE JUMP JUMPDEST POP SWAP1 JUMP JUMPDEST JUMPDEST DUP1 DUP3 GT ISZERO PUSH2 0x107 JUMPI PUSH1 0x0 DUP2 PUSH1 0x0 SWAP1 SSTORE POP PUSH1 0x1 ADD PUSH2 0xEF JUMP JUMPDEST POP SWAP1 JUMP JUMPDEST PUSH1 0x0 PUSH1 0x2 DUP3 DIV SWAP1 POP PUSH1 0x1 DUP3 AND DUP1 PUSH2 0x123 JUMPI PUSH1 0x7F DUP3 AND SWAP2 POP JUMPDEST PUSH1 0x20 DUP3 LT DUP2 EQ ISZERO PUSH2 0x137 JUMPI PUSH2 0x136 PUSH2 0x13D JUMP JUMPDEST JUMPDEST POP SWAP2 SWAP1 POP JUMP JUMPDEST PUSH32 0x4E487B7100000000000000000000000000000000000000000000000000000000 PUSH1 0x0 MSTORE PUSH1 0x22 PUSH1 0x4 MSTORE PUSH1 0x24 PUSH1 0x0 REVERT JUMPDEST PUSH2 0x981 DUP1 PUSH2 0x17B PUSH1 0x0 CODECOPY PUSH1 0x0 RETURN INVALID PUSH1 0x80 PUSH1 0x40 MSTORE CALLVALUE DUP1 ISZERO PUSH2 0x10 JUMPI PUSH1 0x0 DUP1 REVERT JUMPDEST POP PUSH1 0x4 CALLDATASIZE LT PUSH2 0x41 JUMPI PUSH1 0x0 CALLDATALOAD PUSH1 0xE0 SHR DUP1 PUSH4 0x93EBBD92 EQ PUSH2 0x46 JUMPI DUP1 PUSH4 0xBD1B8531 EQ PUSH2 0x64 JUMPI DUP1 PUSH4 0xBFC66066 EQ PUSH2 0x82 JUMPI JUMPDEST PUSH1 0x0 DUP1 REVERT JUMPDEST PUSH2 0x4E PUSH2 0x9E JUMP JUMPDEST PUSH1 0x40 MLOAD PUSH2 0x5B SWAP2 SWAP1 PUSH2 0x604 JUMP JUMPDEST PUSH1 0x40 MLOAD DUP1 SWAP2 SUB SWAP1 RETURN JUMPDEST PUSH2 0x6C PUSH2 0x130 JUMP JUMPDEST PUSH1 0x40 MLOAD PUSH2 0x79 SWAP2 SWAP1 PUSH2 0x604 JUMP JUMPDEST PUSH1 0x40 MLOAD DUP1 SWAP2 SUB SWAP1 RETURN JUMPDEST PUSH2 0x9C PUSH1 0x4 DUP1 CALLDATASIZE SUB DUP2 ADD SWAP1 PUSH2 0x97 SWAP2 SWAP1 PUSH2 0x55F JUMP JUMPDEST PUSH2 0x148 JUMP JUMPDEST STOP JUMPDEST PUSH1 0x60 PUSH1 0x0 DUP1 SLOAD PUSH2 0xAD SWAP1 PUSH2 0x7DE JUMP JUMPDEST DUP1 PUSH1 0x1F ADD PUSH1 0x20 DUP1 SWAP2 DIV MUL PUSH1 0x20 ADD PUSH1 0x40 MLOAD SWAP1 DUP2 ADD PUSH1 0x40 MSTORE DUP1 SWAP3 SWAP2 SWAP1 DUP2 DUP2 MSTORE PUSH1 0x20 ADD DUP3 DUP1 SLOAD PUSH2 0xD9 SWAP1 PUSH2 0x7DE JUMP JUMPDEST DUP1 ISZERO PUSH2 0x126 JUMPI DUP1 PUSH1 0x1F LT PUSH2 0xFB JUMPI PUSH2 0x100 DUP1 DUP4 SLOAD DIV MUL DUP4 MSTORE SWAP2 PUSH1 0x20 ADD SWAP2 PUSH2 0x126 JUMP JUMPDEST DUP3 ADD SWAP2 SWAP1 PUSH1 0x0 MSTORE PUSH1 0x20 PUSH1 0x0 KECCAK256 SWAP1 JUMPDEST DUP2 SLOAD DUP2 MSTORE SWAP1 PUSH1 0x1 ADD SWAP1 PUSH1 0x20 ADD DUP1 DUP4 GT PUSH2 0x109 JUMPI DUP3 SWAP1 SUB PUSH1 0x1F AND DUP3 ADD SWAP2 JUMPDEST POP POP POP POP POP SWAP1 POP SWAP1 JUMP JUMPDEST PUSH1 0x60 PUSH1 0x0 PUSH2 0x13F PUSH1 0x1 SLOAD PUSH2 0x162 JUMP JUMPDEST SWAP1 POP DUP1 SWAP2 POP POP SWAP1 JUMP JUMPDEST DUP1 PUSH1 0x0 SWAP1 DUP1 MLOAD SWAP1 PUSH1 0x20 ADD SWAP1 PUSH2 0x15E SWAP3 SWAP2 SWAP1 PUSH2 0x44C JUMP JUMPDEST POP POP JUMP JUMPDEST PUSH1 0x60 PUSH2 0x179 DUP3 PUSH1 0x1 PUSH2 0x173 DUP6 PUSH2 0x180 JUMP JUMPDEST ADD PUSH2 0x210 JUMP JUMPDEST SWAP1 POP SWAP2 SWAP1 POP JUMP JUMPDEST PUSH1 0x0 DUP1 PUSH1 0x0 SWAP1 POP PUSH1 0x0 PUSH1 0x80 DUP5 SWAP1 SHR GT ISZERO PUSH2 0x1A2 JUMPI PUSH1 0x80 DUP4 SWAP1 SHR SWAP3 POP PUSH1 0x10 DUP2 ADD SWAP1 POP JUMPDEST PUSH1 0x0 PUSH1 0x40 DUP5 SWAP1 SHR GT ISZERO PUSH2 0x1BD JUMPI PUSH1 0x40 DUP4 SWAP1 SHR SWAP3 POP PUSH1 0x8 DUP2 ADD SWAP1 POP JUMPDEST PUSH1 0x0 PUSH1 0x20 DUP5 SWAP1 SHR GT ISZERO PUSH2 0x1D8 JUMPI PUSH1 0x20 DUP4 SWAP1 SHR SWAP3 POP PUSH1 0x4 DUP2 ADD SWAP1 POP JUMPDEST PUSH1 0x0 PUSH1 0x10 DUP5 SWAP1 SHR GT ISZERO PUSH2 0x1F3 JUMPI PUSH1 0x10 DUP4 SWAP1 SHR SWAP3 POP PUSH1 0x2 DUP2 ADD SWAP1 POP JUMPDEST PUSH1 0x0 PUSH1 0x8 DUP5 SWAP1 SHR GT ISZERO PUSH2 0x207 JUMPI PUSH1 0x1 DUP2 ADD SWAP1 POP JUMPDEST DUP1 SWAP2 POP POP SWAP2 SWAP1 POP JUMP JUMPDEST PUSH1 0x60 PUSH1 0x0 PUSH1 0x2 DUP4 PUSH1 0x2 PUSH2 0x223 SWAP2 SWAP1 PUSH2 0x70E JUMP JUMPDEST PUSH2 0x22D SWAP2 SWAP1 PUSH2 0x6B8 JUMP JUMPDEST PUSH8 0xFFFFFFFFFFFFFFFF DUP2 GT ISZERO PUSH2 0x246 JUMPI PUSH2 0x245 PUSH2 0x8CE JUMP JUMPDEST JUMPDEST PUSH1 0x40 MLOAD SWAP1 DUP1 DUP3 MSTORE DUP1 PUSH1 0x1F ADD PUSH1 0x1F NOT AND PUSH1 0x20 ADD DUP3 ADD PUSH1 0x40 MSTORE DUP1 ISZERO PUSH2 0x278 JUMPI DUP2 PUSH1 0x20 ADD PUSH1 0x1 DUP3 MUL DUP1 CALLDATASIZE DUP4 CALLDATACOPY DUP1 DUP3 ADD SWAP2 POP POP SWAP1 POP JUMPDEST POP SWAP1 POP PUSH32 0x3000000000000000000000000000000000000000000000000000000000000000 DUP2 PUSH1 0x0 DUP2 MLOAD DUP2 LT PUSH2 0x2B0 JUMPI PUSH2 0x2AF PUSH2 0x89F JUMP JUMPDEST JUMPDEST PUSH1 0x20 ADD ADD SWAP1 PUSH31 0xFFFFFFFFFFFFFFFFFFFFFFFFFFFFFFFFFFFFFFFFFFFFFFFFFFFFFFFFFFFFFF NOT AND SWAP1 DUP2 PUSH1 0x0 BYTE SWAP1 MSTORE8 POP PUSH32 0x7800000000000000000000000000000000000000000000000000000000000000 DUP2 PUSH1 0x1 DUP2 MLOAD DUP2 LT PUSH2 0x314 JUMPI PUSH2 0x313 PUSH2 0x89F JUMP JUMPDEST JUMPDEST PUSH1 0x20 ADD ADD SWAP1 PUSH31 0xFFFFFFFFFFFFFFFFFFFFFFFFFFFFFFFFFFFFFFFFFFFFFFFFFFFFFFFFFFFFFF NOT AND SWAP1 DUP2 PUSH1 0x0 BYTE SWAP1 MSTORE8 POP PUSH1 0x0 PUSH1 0x1 DUP5 PUSH1 0x2 PUSH2 0x354 SWAP2 SWAP1 PUSH2 0x70E JUMP JUMPDEST PUSH2 0x35E SWAP2 SWAP1 PUSH2 0x6B8 JUMP JUMPDEST SWAP1 POP JUMPDEST PUSH1 0x1 DUP2 GT ISZERO PUSH2 0x3FE JUMPI PUSH32 0x3031323334353637383961626364656600000000000000000000000000000000 PUSH1 0xF DUP7 AND PUSH1 0x10 DUP2 LT PUSH2 0x3A0 JUMPI PUSH2 0x39F PUSH2 0x89F JUMP JUMPDEST JUMPDEST BYTE PUSH1 0xF8 SHL DUP3 DUP3 DUP2 MLOAD DUP2 LT PUSH2 0x3B7 JUMPI PUSH2 0x3B6 PUSH2 0x89F JUMP JUMPDEST JUMPDEST PUSH1 0x20 ADD ADD SWAP1 PUSH31 0xFFFFFFFFFFFFFFFFFFFFFFFFFFFFFFFFFFFFFFFFFFFFFFFFFFFFFFFFFFFFFF NOT AND SWAP1 DUP2 PUSH1 0x0 BYTE SWAP1 MSTORE8 POP PUSH1 0x4 DUP6 SWAP1 SHR SWAP5 POP DUP1 PUSH2 0x3F7 SWAP1 PUSH2 0x7B4 JUMP JUMPDEST SWAP1 POP PUSH2 0x361 JUMP JUMPDEST POP PUSH1 0x0 DUP5 EQ PUSH2 0x442 JUMPI PUSH1 0x40 MLOAD PUSH32 0x8C379A000000000000000000000000000000000000000000000000000000000 DUP2 MSTORE PUSH1 0x4 ADD PUSH2 0x439 SWAP1 PUSH2 0x626 JUMP JUMPDEST PUSH1 0x40 MLOAD DUP1 SWAP2 SUB SWAP1 REVERT JUMPDEST DUP1 SWAP2 POP POP SWAP3 SWAP2 POP POP JUMP JUMPDEST DUP3 DUP1 SLOAD PUSH2 0x458 SWAP1 PUSH2 0x7DE JUMP JUMPDEST SWAP1 PUSH1 0x0 MSTORE PUSH1 0x20 PUSH1 0x0 KECCAK256 SWAP1 PUSH1 0x1F ADD PUSH1 0x20 SWAP1 DIV DUP2 ADD SWAP3 DUP3 PUSH2 0x47A JUMPI PUSH1 0x0 DUP6 SSTORE PUSH2 0x4C1 JUMP JUMPDEST DUP3 PUSH1 0x1F LT PUSH2 0x493 JUMPI DUP1 MLOAD PUSH1 0xFF NOT AND DUP4 DUP1 ADD OR DUP6 SSTORE PUSH2 0x4C1 JUMP JUMPDEST DUP3 DUP1 ADD PUSH1 0x1 ADD DUP6 SSTORE DUP3 ISZERO PUSH2 0x4C1 JUMPI SWAP2 DUP3 ADD JUMPDEST DUP3 DUP2 GT ISZERO PUSH2 0x4C0 JUMPI DUP3 MLOAD DUP3 SSTORE SWAP2 PUSH1 0x20 ADD SWAP2 SWAP1 PUSH1 0x1 ADD SWAP1 PUSH2 0x4A5 JUMP JUMPDEST JUMPDEST POP SWAP1 POP PUSH2 0x4CE SWAP2 SWAP1 PUSH2 0x4D2 JUMP JUMPDEST POP SWAP1 JUMP JUMPDEST JUMPDEST DUP1 DUP3 GT ISZERO PUSH2 0x4EB JUMPI PUSH1 0x0 DUP2 PUSH1 0x0 SWAP1 SSTORE POP PUSH1 0x1 ADD PUSH2 0x4D3 JUMP JUMPDEST POP SWAP1 JUMP JUMPDEST PUSH1 0x0 PUSH2 0x502 PUSH2 0x4FD DUP5 PUSH2 0x66B JUMP JUMPDEST PUSH2 0x646 JUMP JUMPDEST SWAP1 POP DUP3 DUP2 MSTORE PUSH1 0x20 DUP2 ADD DUP5 DUP5 DUP5 ADD GT ISZERO PUSH2 0x51E JUMPI PUSH2 0x51D PUSH2 0x902 JUMP JUMPDEST JUMPDEST PUSH2 0x529 DUP5 DUP3 DUP6 PUSH2 0x772 JUMP JUMPDEST POP SWAP4 SWAP3 POP POP POP JUMP JUMPDEST PUSH1 0x0 DUP3 PUSH1 0x1F DUP4 ADD SLT PUSH2 0x546 JUMPI PUSH2 0x545 PUSH2 0x8FD JUMP JUMPDEST JUMPDEST DUP2 CALLDATALOAD PUSH2 0x556 DUP5 DUP3 PUSH1 0x20 DUP7 ADD PUSH2 0x4EF JUMP JUMPDEST SWAP2 POP POP SWAP3 SWAP2 POP POP JUMP JUMPDEST PUSH1 0x0 PUSH1 0x20 DUP3 DUP5 SUB SLT ISZERO PUSH2 0x575 JUMPI PUSH2 0x574 PUSH2 0x90C JUMP JUMPDEST JUMPDEST PUSH1 0x0 DUP3 ADD CALLDATALOAD PUSH8 0xFFFFFFFFFFFFFFFF DUP2 GT ISZERO PUSH2 0x593 JUMPI PUSH2 0x592 PUSH2 0x907 JUMP JUMPDEST JUMPDEST PUSH2 0x59F DUP5 DUP3 DUP6 ADD PUSH2 0x531 JUMP JUMPDEST SWAP2 POP POP SWAP3 SWAP2 POP POP JUMP JUMPDEST PUSH1 0x0 PUSH2 0x5B3 DUP3 PUSH2 0x69C JUMP JUMPDEST PUSH2 0x5BD DUP2 DUP6 PUSH2 0x6A7 JUMP JUMPDEST SWAP4 POP PUSH2 0x5CD DUP2 DUP6 PUSH1 0x20 DUP7 ADD PUSH2 0x781 JUMP JUMPDEST PUSH2 0x5D6 DUP2 PUSH2 0x911 JUMP JUMPDEST DUP5 ADD SWAP2 POP POP SWAP3 SWAP2 POP POP JUMP JUMPDEST PUSH1 0x0 PUSH2 0x5EE PUSH1 0x20 DUP4 PUSH2 0x6A7 JUMP JUMPDEST SWAP2 POP PUSH2 0x5F9 DUP3 PUSH2 0x922 JUMP JUMPDEST PUSH1 0x20 DUP3 ADD SWAP1 POP SWAP2 SWAP1 POP JUMP JUMPDEST PUSH1 0x0 PUSH1 0x20 DUP3 ADD SWAP1 POP DUP2 DUP2 SUB PUSH1 0x0 DUP4 ADD MSTORE PUSH2 0x61E DUP2 DUP5 PUSH2 0x5A8 JUMP JUMPDEST SWAP1 POP SWAP3 SWAP2 POP POP JUMP JUMPDEST PUSH1 0x0 PUSH1 0x20 DUP3 ADD SWAP1 POP DUP2 DUP2 SUB PUSH1 0x0 DUP4 ADD MSTORE PUSH2 0x63F DUP2 PUSH2 0x5E1 JUMP JUMPDEST SWAP1 POP SWAP2 SWAP1 POP JUMP JUMPDEST PUSH1 0x0 PUSH2 0x650 PUSH2 0x661 JUMP JUMPDEST SWAP1 POP PUSH2 0x65C DUP3 DUP3 PUSH2 0x810 JUMP JUMPDEST SWAP2 SWAP1 POP JUMP JUMPDEST PUSH1 0x0 PUSH1 0x40 MLOAD SWAP1 POP SWAP1 JUMP JUMPDEST PUSH1 0x0 PUSH8 0xFFFFFFFFFFFFFFFF DUP3 GT ISZERO PUSH2 0x686 JUMPI PUSH2 0x685 PUSH2 0x8CE JUMP JUMPDEST JUMPDEST PUSH2 0x68F DUP3 PUSH2 0x911 JUMP JUMPDEST SWAP1 POP PUSH1 0x20 DUP2 ADD SWAP1 POP SWAP2 SWAP1 POP JUMP JUMPDEST PUSH1 0x0 DUP2 MLOAD SWAP1 POP SWAP2 SWAP1 POP JUMP JUMPDEST PUSH1 0x0 DUP3 DUP3 MSTORE PUSH1 0x20 DUP3 ADD SWAP1 POP SWAP3 SWAP2 POP POP JUMP JUMPDEST PUSH1 0x0 PUSH2 0x6C3 DUP3 PUSH2 0x768 JUMP JUMPDEST SWAP2 POP PUSH2 0x6CE DUP4 PUSH2 0x768 JUMP JUMPDEST SWAP3 POP DUP3 PUSH32 0xFFFFFFFFFFFFFFFFFFFFFFFFFFFFFFFFFFFFFFFFFFFFFFFFFFFFFFFFFFFFFFFF SUB DUP3 GT ISZERO PUSH2 0x703 JUMPI PUSH2 0x702 PUSH2 0x841 JUMP JUMPDEST JUMPDEST DUP3 DUP3 ADD SWAP1 POP SWAP3 SWAP2 POP POP JUMP JUMPDEST PUSH1 0x0 PUSH2 0x719 DUP3 PUSH2 0x768 JUMP JUMPDEST SWAP2 POP PUSH2 0x724 DUP4 PUSH2 0x768 JUMP JUMPDEST SWAP3 POP DUP2 PUSH32 0xFFFFFFFFFFFFFFFFFFFFFFFFFFFFFFFFFFFFFFFFFFFFFFFFFFFFFFFFFFFFFFFF DIV DUP4 GT DUP3 ISZERO ISZERO AND ISZERO PUSH2 0x75D JUMPI PUSH2 0x75C PUSH2 0x841 JUMP JUMPDEST JUMPDEST DUP3 DUP3 MUL SWAP1 POP SWAP3 SWAP2 POP POP JUMP JUMPDEST PUSH1 0x0 DUP2 SWAP1 POP SWAP2 SWAP1 POP JUMP JUMPDEST DUP3 DUP2 DUP4 CALLDATACOPY PUSH1 0x0 DUP4 DUP4 ADD MSTORE POP POP POP JUMP JUMPDEST PUSH1 0x0 JUMPDEST DUP4 DUP2 LT ISZERO PUSH2 0x79F JUMPI DUP1 DUP3 ADD MLOAD DUP2 DUP5 ADD MSTORE PUSH1 0x20 DUP2 ADD SWAP1 POP PUSH2 0x784 JUMP JUMPDEST DUP4 DUP2 GT ISZERO PUSH2 0x7AE JUMPI PUSH1 0x0 DUP5 DUP5 ADD MSTORE JUMPDEST POP POP POP POP JUMP JUMPDEST PUSH1 0x0 PUSH2 0x7BF DUP3 PUSH2 0x768 JUMP JUMPDEST SWAP2 POP PUSH1 0x0 DUP3 EQ ISZERO PUSH2 0x7D3 JUMPI PUSH2 0x7D2 PUSH2 0x841 JUMP JUMPDEST JUMPDEST PUSH1 0x1 DUP3 SUB SWAP1 POP SWAP2 SWAP1 POP JUMP JUMPDEST PUSH1 0x0 PUSH1 0x2 DUP3 DIV SWAP1 POP PUSH1 0x1 DUP3 AND DUP1 PUSH2 0x7F6 JUMPI PUSH1 0x7F DUP3 AND SWAP2 POP JUMPDEST PUSH1 0x20 DUP3 LT DUP2 EQ ISZERO PUSH2 0x80A JUMPI PUSH2 0x809 PUSH2 0x870 JUMP JUMPDEST JUMPDEST POP SWAP2 SWAP1 POP JUMP JUMPDEST PUSH2 0x819 DUP3 PUSH2 0x911 JUMP JUMPDEST DUP2 ADD DUP2 DUP2 LT PUSH8 0xFFFFFFFFFFFFFFFF DUP3 GT OR ISZERO PUSH2 0x838 JUMPI PUSH2 0x837 PUSH2 0x8CE JUMP JUMPDEST JUMPDEST DUP1 PUSH1 0x40 MSTORE POP POP POP JUMP JUMPDEST PUSH32 0x4E487B7100000000000000000000000000000000000000000000000000000000 PUSH1 0x0 MSTORE PUSH1 0x11 PUSH1 0x4 MSTORE PUSH1 0x24 PUSH1 0x0 REVERT JUMPDEST PUSH32 0x4E487B7100000000000000000000000000000000000000000000000000000000 PUSH1 0x0 MSTORE PUSH1 0x22 PUSH1 0x4 MSTORE PUSH1 0x24 PUSH1 0x0 REVERT JUMPDEST PUSH32 0x4E487B7100000000000000000000000000000000000000000000000000000000 PUSH1 0x0 MSTORE PUSH1 0x32 PUSH1 0x4 MSTORE PUSH1 0x24 PUSH1 0x0 REVERT JUMPDEST PUSH32 0x4E487B7100000000000000000000000000000000000000000000000000000000 PUSH1 0x0 MSTORE PUSH1 0x41 PUSH1 0x4 MSTORE PUSH1 0x24 PUSH1 0x0 REVERT JUMPDEST PUSH1 0x0 DUP1 REVERT JUMPDEST PUSH1 0x0 DUP1 REVERT JUMPDEST PUSH1 0x0 DUP1 REVERT JUMPDEST PUSH1 0x0 DUP1 REVERT JUMPDEST PUSH1 0x0 PUSH1 0x1F NOT PUSH1 0x1F DUP4 ADD AND SWAP1 POP SWAP2 SWAP1 POP JUMP JUMPDEST PUSH32 0x537472696E67733A20686578206C656E67746820696E73756666696369656E74 PUSH1 0x0 DUP3 ADD MSTORE POP JUMP INVALID LOG2 PUSH5 0x6970667358 0x22 SLT KECCAK256 0xBC 0x23 SMOD PUSH30 0xDDF8CA386BA2E9387405C4EA8F2CC9F7BE9576DDB3B48F21507326B06473 PUSH16 0x6C634300080700330000000000000000 "
				},
				"gasEstimates": {
					"creation": {
						"codeDepositCost": "486600",
						"executionCost": "infinite",
						"totalCost": "infinite"
					},
					"external": {
						"toHexString()": "infinite",
						"view_get_func()": "infinite",
						"view_set_func(string)": "infinite"
					}
				},
				"methodIdentifiers": {
					"toHexString()": "bd1b8531",
					"view_get_func()": "93ebbd92",
					"view_set_func(string)": "bfc66066"
				}
			},
			"storageLayout": {
				"storage": [
					{
						"astId": 5,
						"contract": "contracts/ViewPure.sol:ViewPure",
						"label": "value",
						"offset": 0,
						"slot": "0",
						"type": "t_string_storage"
					},
					{
						"astId": 8,
						"contract": "contracts/ViewPure.sol:ViewPure",
						"label": "number",
						"offset": 0,
						"slot": "1",
						"type": "t_uint256"
					}
				],
				"types": {
					"t_string_storage": {
						"encoding": "bytes",
						"label": "string",
						"numberOfBytes": "32"
					},
					"t_uint256": {
						"encoding": "inplace",
						"label": "uint256",
						"numberOfBytes": "32"
					}
				}
			},
			"userdoc": {
				"kind": "user",
				"methods": {},
				"version": 1
			}
		}
	}
}